S0110000312E336B575F474D492E7372656383
S31508000000B0260020EDAD000837AE0008DDA30008D5
S315080000103BAE00083FAE000843AE000800000000F3
S31508000020000000000000000000000000F7AE000815
S3150800003047AE000800000000F9AE0008E5A3000876
S315080000404BAE00084FAE000853AE000857AE000886
S315080000505BAE00085FAE000863AE000867AE000836
S315080000606BAE00086FAE000873AE000877AE0008E6
S315080000707BAE00087FAE000883AE000887AE000896
S315080000808BAE00088FAE000829A3000893AE0008BF
S3150800009097AE00089BAE00089FAE0008A3AE000806
S315080000A04DA300083FA30008A7AE0008ABAE0008A2
S315080000B0AFAE00080000000000000000F7110008BD
S315080000C061120008B3AE0008B7AE000800000000D1
S315080000D0BBAE00089D7D00087FA30008BFAE0008E0
S315080000E0C3AE0008C7AE0008CBAE0008000000008B
S315080000F000000000000000000000000000000000F2
S31508000100000000000000000000000000CFAE00085C
S315080001100000000000000000D3AE00080000000048
S3150800012000000000000000000000000000000000C1
S3150800013000000000000000000000000000000000B1
S31508000140D7AE0008DBAE0008000000000000000083
S315080001500000000000000000000000000000000091
S31508000160DFAE0008E3AE0008E7AE0008EBAE000815
S31508000170EFAE0008000000000000000000000000CC
S3150800018000000000F3AE0008F0B5059C069D466821
S31508000190DFF8B87B47EA5557BE433143114341EA76
S315080001A00341214329434160F0BD38B50020009042
S315080001B0002300F032F8DFF8984B04F18001016063
S315080001C0206600230020009000F027F804F5A471AB
S315080001D00160606600230020009002221C21032093
S315080001E000F06AFE04F11C01016004F11C02DFF84C
S315080001F0641B0A600022636E23621A7500250B6869
S31508000200226E1A6015750B681D7604F504730A6864
S31508000210557209680B61A06631BD0222C821032008
S3150800022000F09EBE2DE9F84789B08246DFF8248B98
S31508000230DFF8244BDFF8186BDFF8209B1625FF271D
S3150800024002B3012A64D0022A00F0B180032A00F022
S31508000250BF80042A00F09A81052A00F0B781062A91
S3150800026000F0C381072A00F0D081082A00F0FB813C
S31508000270092A00F01E820A2A00F07C82FF2A00F072
S315080002809982B8E100F0D2FEFFF78FFF002414210F
S31508000290DFF8CC0A61434718384601F01DF8504587
S315080002A008BFB766641C0E2CF1DD504601F0ECF869
S315080002B015FB00F5FF2809EB050106D009F109022F
S315080002C0C8205055B06EC1F80B00D1F80B00006875
S315080002D0C8F8000004214FF4157000F00FFCB1783F
S315080002E07067F12918BFFE29F4D10068DFF8D81A1B
S315080002F0884208D10022F27100F034FDF079F12825
S3150800030018BFFE28F8D101F02BF9C6E912016AE1F7
S31508000310C820D8F8001000900127086801F028FACC
S315080003200C282EDBD8F8000000686B460022214610
S3150800033001F0D4F9B07A671C00E00846C2B2411C45
S31508000340A35C022BF9D1BA5C801800F10C02D2B278
S315080003500846A35C032BC9B201D0C829EEDBB072EC
S31508000360C0B2012804D0D8F80000491E00F03CFAB3
S31508000370B07A215CD8F800000D3100F035FA022772
S3150800038039E101F0EDF8D6E912239942F8D301D8FC
S315080003909042F5D301F0E4F8401C61F1FF31C6E95B
S315080003A0120101F0D9F800F019FA062723E1E078DE
S315080003B0A17801EB0020042781B2FF293082D8BF3B
S315080003C0032701F0C9F800F009FA0022B27112E118
S315080003D0607B217B328A012701EB00208AB1521EFD
S315080003E065D00F3A00F0AC804EF6F053D21A0ED014
S315080003F0521E64D0521E00F086800E3A00F0AF807E
S31508000400F9E0F0814FF46E410020B07054E000F03E
S31508000410DFF9102180B200F071FB054675670327E6
S31508000420B078F12818BFFE28EAD101A80FF668218E
S31508000430202201F08BFA01A8217B627B01734273AB
S31508000440A17B81732A78C27369780174AA788DF8BA
S315080004501520E97881742A798DF81720697901754C
S31508000460AA798DF819202022E9798175287A8DF8DC
S315080004701B00687A8DF81C00A87A8DF81D00E87AAA
S315080004808DF81E00287B8DF81F00687B8DF82000EC
S31508000490A87B8DF82100E97BD8F800008DF822109A
S315080004A000926A46406801A901F0D3F89BE0F08102
S315080004B04EF6016100207071318203279BE001F03E
S315080004C04BF800F08AF900F083F9012204F10E01D5
S315080004D080B200F083FB7079F12818BFFE280CD093
S315080004E001F03AF800F070F9EDD301D89042EAD35A
S315080004F07079F12818BFFE287DD100204EF60261DA
S315080005007071318277E001F027F800F066F9F0891A
S31508000510400000F20120012204F10F0180B200F030
S315080005205DFB7079F12818BFFE285CD001F014F83D
S3150800053000F04AF9EBD301D89042E8D3707940E04D
S3150800054081B22C2909DA00291CBF04290F2904D0F5
S315080005504EF61061318232720327F0814BE0032791
S31508000560F08900F033FC307AF12818BFFE2807D04E
S3150800057000F0F2FF00F028F9F2D301D89042EFD349
S3150800058000F0EAFF00F02AF9307A1AE004276178C9
S315080005900D3189B2204600F081FB708200F0DCFF45
S315080005A000F012F902D398BF904205D2B079F1282B
S315080005B019D0FE28EBD116E000F0CEFF00F00EF9B8
S315080005C0B079F1280FD0FE2815D10CE00020B070C4
S315080005D0B4214FF4007000F091FA7067B078F128F2
S315080005E018BFFE28F4D1012705E0707AC10706D5A1
S315080005F007270020B07038460AB0BDE8F08700F03B
S31508000600ABFF00F0EBF80927F3E700F0A5FF072793
S3150800061000F0E4F8707800F0DCF8022180B200F00F
S315080006206DFAF066B078F12818BFFE280CD000F0F5
S3150800063093FF00F0C9F8EDD301D89042EAD3B07819
S31508000640F12818BFFE28D6D1DFF82C08D0F81001FB
S3150800065001F088F9F16EB0810A88824228D200201A
S3150800066070710827C7E700F077FF082700F0B6F88B
S31508000670B1898DF80010090A8DF80110707800F01C
S31508000680A8F80222694680B200F0A8FA7079F12823
S3150800069018BFFE280CD000F05FFF00F095F8EDD3E8
S315080006A001D89042EAD37079F12801D0FE28A2D168
S315080006B07CE0D6E9140109274FF0FF336FF00102F9
S315080006C0994208BF904241D100F046FF00F086F8F3
S315080006D0307800F07EF8082180B200F00FFA306713
S315080006E0B078F12818BFFE280CD000F035FF00F0CE
S315080006F06BF8EDD301D89042EAD3B078F12818BF49
S31508000700FE2822D10020C6E914000025306F405D7E
S3150800071050B1D6E914480021EA0001F029F9201859
S3150800072048EB0101C6E914016D1C082DEEDBD6E97C
S31508000730140101239942DFF8442706DB01DC9042C5
S3150800074003D3DFF83C47C6E9144354E700F008FF33
S31508000750D6E9142310185941C6E916010122914217
S31508000760DFF81C4722D828BFA0421FD200200A273C
S31508000770707140E700F0F0FE0A2700F02FF8307895
S3150800078000F027F8082206F1580180B200F026FA90
S315080007907079F12818BFFE2808D000F0DDFE00F0B9
S315080007A013F8ECD301D89042E9D37CE7707A401C61
S315080007B0707218E700F068FEFF2804D009F10A01F4
S315080007C015FB00F54F5516E7D6E9102399427047F1
S315080007D0F089400000F5007070470327C01C41F1FE
S315080007E00001C6E91001704700916A460068214673
S315080007F000F052BF2DE9FE43DFF858C5DFF8506513
S31508000800DCF80040DFF87CE613460022112B627202
S31508000810A8BF10230546EC0904F0FE0444F0A0091D
S3150800082090463779DFF860461A46AFB1012F1ED0D9
S31508000830022F2AD0032F67D0042F7AD0052F00F075
S315080008408380062F00F08580072F00F09380F12F14
S3150800085018BFFE2F53D098E000F086FC00F07CFE0F
S31508000860401C61F1FF31C6E90E0101225FE0A06973
S31508000870000444D400F070FED6E90E2399423ED314
S3150800088001D890423BD3022038E0C7B2012BA762B9
S3150800089017D1206840F0020020604FF00070DCF8A5
S315080008A00020D1600090CDF804E0022300F077F82C
S315080008B000F052FE401D41F10001C6E90E01072075
S315080008C01CE0C0B2C10800EB11731B09B0EB0310A2
S315080008D008BF032012D05019B0F5006F12DA05F0E0
S315080008E0FF05E80805EB10710909A5EB011555196F
S315080008F0112DACBF0520042086F8038030714046D0
S31508000900BDE8FE830620F7E7206840F00200206075
S315080009104FF00070DCF80030D9600090CDF804E0A4
S31508000920531C00F03CF800F017FE00F031F8327165
S31508000930E5E70A464FF6FF7100F036F8F078F12839
S31508000940F1D0FE28DBD1EEE70A4600F1100189B2A4
S31508000950F2E70A46002100F027F8F078F12818BFD8
S31508000960FE28CCD100F0F8FD00F012F832714FF0F5
S315080009700108C4E700F0F0FDD6E90E239942BED37C
S3150800098001D89042BBD3F120B8E7FE213171B6E712
S31508000990401D41F10001C6E90E01072270470022F9
S315080009A049462046FFF7F0BB2DE9FC4705460009F6
S315080009B0DFF89C7392460001C5F110054519FA78CF
S315080009C0DFF8C094DFF88C83DFF8BC640C46EDB220
S315080009D062B1012A12D0022A1BD0032A44D0042A63
S315080009E076D0F12A18BFFE2A12D07DE00023BB700C
S315080009F0102100F083F8B867012073E0B978F1296F
S31508000A0014BFFE2902206DD0102100F077F8B867D0
S31508000A106CE0C5F11003BA6F5BB205E0EC185444FC
S31508000A2014F8104CD4545B1C102BF7DB336843F0D6
S31508000A30020333604FF00073D8F80040E260C2B298
S31508000A40C00900F0FE00B262009340F0A001CDF8A4
S31508000A500490112300223046FFF796FB00F07CFD38
S31508000A6000F046F8032231E000F076FDD7E90E23C0
S31508000A7099423BD301D8904238D321464FF6FF74AA
S31508000A80A14222D0306840F0020030600909D8F847
S31508000A90003009010AEB05024FF00070DA60CCB2AB
S31508000AA0C5F11005C909B4620090EDB201F0FE0166
S31508000AB0CDF804906B1C002241F0A0013046FFF7E8
S31508000AC063FB00F049FD00F013F80422FA700DE00C
S31508000AD000F042FDD7E90E23994207D301D8904288
S31508000AE004D3F120F87001E0FE21F970BDE8F38720
S31508000AF0401D41F10001C7E90E017047F8B50546EA
S31508000B000F467819B0F5006F914C5DDAA178DFF8D9
S31508000B107C03904E51B1012911D0022924D0032912
S31508000B203ED0F1294DD0FE2950D04DE0284600F0A0
S31508000B301BFB00F011FD00F04BF801222EE00068C7
S31508000B40000443D400F008FDD4E90E2399423DD3AE
S31508000B5001D890423AD3284600F006FB00F0FCFC88
S31508000B6000F036F8022219E0006800042ED400F0DE
S31508000B70F3FCD4E90E23994228D301D8904225D311
S31508000B803946284600F008FB3168486100F0E4FC65
S31508000B90C01D41F10001C4E90E010322A27015E04F
S31508000BA00068000412D400F0D7FCD4E90E23994259
S31508000BB00CD301D8904209D3F120A0703168486956
S31508000BC0F2BD30684069F2BDFE20A0700020F2BD7B
S31508000BD0401C61F1FF31C4E90E017047F8B5DFF832
S31508000BE0B042002517186379B7F5006F1646A8BFF7
S31508000BF04FF0FF3550DAE77A00EB071001EB0711E3
S31508000C001F000CD0012B10D0022B10D0032B25D09F
S31508000C10042B2FD0F12B18BFFE2B1CD03CE0102A3A
S31508000C20E572B4BF0323012315E02571022363711E
S31508000C30102280B2FFF7DEFD2079F12818BFFE28C2
S31508000C4008D1E07A411CB0EB161F34BF01200320FF
S31508000C50E1726071637963712846F2BDD00802EBD0
S31508000C6010710909B2EB011202D025710423F2E7CB
S31508000C70F123F0E7F60802EB16773F096371A2EB5A
S31508000C800712D2B280B2FFF7B5FD20796379F12851
S31508000C90EED0FE28DFD1EBE7FE23DCE738B52C4C97
S31508000CA0A38A0D46A17961B101290FD0022927D05F
S31508000CB0032931D0042935D0F12918BFFE2942D09D
S31508000CC03FE000200122A070A2713CE002214FF40F
S31508000CD00070FFF713FFA178E067F12918BFFE2916
S31508000CE031D14178007800EB012015FA80F2B2F58F
S31508000CF0007FA8BF0020A08202210020607121E0A9
S31508000D000146EAB21846FFF769FF6079F12818BF6D
S31508000D10FE2818D1032012E0ED180020A5822071C4
S31508000D2004210FE0022204F114014FF40070FFF7CA
S31508000D3061FD2079F12818BFFE2804D1F120A071A1
S31508000D4001E0FE21A171A08A32BD0000FF7BFF03EE
S31508000D50C8060020742200203C1C0020F81300203E
S31508000D60441A002018B585B011220021684600F003
S31508000D7010FE474CE07930B101280AD0F12818BF97
S31508000D80FE281CD01DE00021E18220710121E171BD
S31508000D9015E0E08A000510226946000CFFF72AFDD7
S31508000DA02079F12818BFFE2809D1E08A401C0021C5
S31508000DB0217182B2802AA4BFF121E171E08206B0D6
S31508000DC010BDFE20E071FAE75163127338B5304C56
S31508000DD0E389217A5B0003F5007051B101290DD032
S31508000DE0022924D0032935D0F12918BFFE291DD0A0
S31508000DF03FE00020A0700122227231BD022180B29C
S31508000E00FFF77CFEA178F12918BFFE290DD1214AEA
S31508000E100188937BC9188BB24FF6F175AB4203DA9A
S31508000E2000220223227123722183606731BD0122C9
S31508000E3004F1180180B2FFF7DDFC2079F12818BF0C
S31508000E40FE28F3D10020218B2071090A2183032073
S31508000E50207231BD03F20123012204F1180198B270
S31508000E60FFF7C8FC2079F12818BFFE28DED1F1204B
S31508000E70EEE7FE21217231BDD80B002081207F3993
S31508000E8080207F390020008000540040185400401C
S31508000E90C80600203C1C00200213000000000000C9
S31508000EA000000000000000FFFFFFFFFFFFFFFFFF3D
S31508000EB0FFFFFFFFFFFFFF032DE9FC4782460C46B5
S31508000EC0002500261427DFF8948000F02BF85045FB
S31508000ED008D1484600F005FA864203D2484600F093
S31508000EE000FA06466D1CE8B20F28EEDB002500F076
S31508000EF019F8FF2805D06D1CE8B20F28F7DB00208B
S31508000F000EE00020019000900023224651464846F4
S31508000F1000F0C4F9761CF1B2484600F0E4F94846F8
S31508000F20BDE8F687E8B2784308EB0009484600F0C2
S31508000F30D3B938B50024E3B21425084A6B43D5184B
S31508000F40FF21284600F0CAF9FF21284600F0CBF910
S31508000F50641CE0B20F28EEDB012032BD441A0020E3
S31508000F602DE9FE4380460C4600260027264D00F054
S31508000F702FF8404508D1484600F005FC874203D2C1
S31508000F80484600F000FC0746761CF0B20A28EEDB5D
S31508000F90002600F01DF8FF2805D0761CF0B20A28B6
S31508000FA0F7DB002012E00020019000900023224683
S31508000FB04146484600F0FCFA7F1CF9B2484600F064
S31508000FC0DFFBF1B2484600F0E0FB4846BDE8FE8389
S31508000FD0300605EBD049484600F0CDBB38B50024AD
S31508000FE0094A230602EBD345FF21284600F0C5FB34
S31508000FF0FF21284600F0C4FB641CE0B20A28EFDB98
S31508001000012032BD0000000004190020F0B5059C3F
S31508001010069D4668864F47EA5557BE4331431143F6
S3150800102041EA0341214329434160F0BD10B58EB022
S315080010301C22002107A800F0ACFC1822002101A8F8
S3150800104000F0A7FC7B4C206840F001002060206877
S315080010508007FCD54FF44072216821F0F80141F071
S3150800106080012160606940F480206061606900F455
S31508001070802000900098216B6F4821F010012163B1
S315080010800192022102910322012104910591039202
S315080010900421069101A90BF05FF8E06940F40010FD
S315080010A0E06140F20B22E069644C00F40010009005
S315080010B00098616841F000716160E06820F40040C2
S315080010C0E060216821F4002121600021206820F4D5
S315080010D00030206008920791099104220A92A02103
S315080010E00B9100220C920D9207A920460BF06AFA82
S315080010F0E0686FF34A00E06051480168C1F30220D6
S31508001100C0F10702052A28BF042107D20122C0F12F
S31508001110070102FA01F1491E01F00401021D072A1E
S3150800112024BFC01E8140474A474B090111704FF042
S3150800113000401860216841F001012160206840F0F4
S3150800114008002060216841F010012160206840F005
S3150800115080002060216841F020012160206840F06D
S31508001160040020600EB010BD1CB5384A536801460D
S3150800117000205872CAB23148354B82620193C909B8
S315080011804FF0007401F0FE0100940123002241F0A3
S31508001190A001FFF73BFF13BD7CB52C4D0B466968D4
S315080011A0044600204872E2B224482A498262019124
S315080011B0E4094FF0007604F0FE040096002244F09D
S315080011C0A001FFF723FF6868006976BD1F48224B18
S315080011D04168CA68521CCA6012F8010D1860704747
S315080011E010B51E48194900684B680A781C69A0544E
S315080011F0521C0A7010BD1148816989060BD5C2694F
S3150800120042F02002C2610168104A21F00201016021
S315080012100020107070478169890748BFFFF7D6BF5D
S315080012208069400748BFFFF7DBBF70470000000032
S31508001230FF7BFF03001002400004004800540040F2
S315080012400CED00E01FE400E000E100E07022002061
S3150800125000200080002400802854004024540040C8
S31508001260704730B4002513E050F8042BD30744BF69
S31508001270A9F101039A18091F042942F8045BFAD256
S3150800128013468C0744BF15809B1CC90748BF1D70B1
S3150800129050F8041B0029E7D130BC7047F8B504465E
S315080012A017460D461E46384600F08EFB18B9094902
S315080012B00A78521C0A700799069A20602174E2601F
S315080012C0257266723946204600F010F8FF206074D1
S315080012D0F1BD0000AA220020007A704701720120A1
S315080012E07047407C70474174084670470246C8B24A
S315080012F088420CBF012000205160704780B5FFF777
S3150800130018FEFFF76BFEA44A0020C2E9000006207B
S3150800131000F02AF9012002BD2DE9F84FDFF87CB26A
S315080013209F4CA04D4FF0160A00260AFB06F02F1810
S31508001330B87A08BBD4E90A0197F80880C4E90C0111
S31508001340D7F801C07B7A3A7AF9793878E047387263
S3150800135087F80780D4E90A23D4E90C01D4E9168969
S31508001360101A63EB0101894504D82EBF8045C4E9EC
S3150800137016016670C4E90E0100202071207904F177
S31508001380080101EBC002D2E90089B9F1000F08BFD4
S31508001390B8F1000F62D001200021C4E91A01E170FA
S315080013A094F804C004F1080000EBCC07D4E91A014C
S315080013B0D7E900231040194008BF00283CD0D4E9DB
S315080013C00A01E778C4E9100107EB8C17FFB2384623
S315080013D000F05AF8FF281DD01AFB07F02918D1F893
S315080013E001C04B7A285C1A461946E04794F804C0AF
S315080013F004F1080000EBCC00D0E90023D4E91A0177
S3150800140022EA000004F1080202EBCC0223EA0101F9
S31508001410C2E90001D4E90A23D4E91001D4E91889FC
S31508001420101A63EB0101894504D82EBF8045C4E92B
S315080014301801A770C4E91201D4E91A01490041EA62
S31508001440D0714000002904BF00280120C4E91A0110
S31508001450E078401CE070C0B24028A1DB2079401C2F
S315080014602071C0B2042889DB761C112EFFF65DAF09
S31508001470BBF80000002806D14B484AF6AA210160AD
S315080014800A200BF003F94FE730B50146FF2000228A
S31508001490444B162454431D5D8D4208BF1046521C0A
S315080014A0112AF6DBC0B230BD10B5404B9C6844F03B
S315080014B0010400229C6002E00C5D1C70521C94B270
S315080014C08442F9D3186880B210BD2DE9F84F8946D1
S315080014D01E464FEA9913324F07EBC30804461546D2
S315080014E0D8E902AB01200021A9EB831200F040FAEB
S315080014F04AEA00024BEA0103C8E902233C7048465F
S31508001500FFF7C2FF0146FF290AD01622254B0A9883
S31508001510514319444874CD730E740B98C1F81200E0
S31508001520BDE8F18FD0B51E4C4EF66022D4E90A010B
S31508001530461C61F1FF37002300F06AFAC4E90A671E
S31508001540002B08BF002A06D1D4E91401421C61F118
S31508001550FF33C4E91423D0BD1148D0E90A01704706
S315080015600F48D0E91401704710B50F4A4CF6CC4124
S31508001570116045F2555340F2712113600024484327
S315080015805460C0F30B009060D06810F0070FFBD1D1
S315080015904AF6AA20106010BD882200204C130020AD
S315080015A0F00A0020F8130020003000400030024006
S315080015B02DE9F843054690460E469946404600F002
S315080015C003FA18B910490A78521C0A70099C089F30
S315080015D028600021284600F0DEF80021284600F0A1
S315080015E0E0F80021284600F0A9F90120C5F8108086
S315080015F028756E7585F81690AF61FF202C77687789
S31508001600A877BDE8F1830000AB22002010B5044698
S31508001610002100F0C0F80021204600F0C2F820465C
S31508001620BDE81040002189E170B504460D462168E1
S31508001630207A0E18204600F039F908B1207D38B115
S315080016402878307000F024F82046BDE87040C4E0E1
S3150800165070BDF8B504460D461646002709E0216810
S31508001660227AE85D885400F013F8204600F0B5F8B1
S315080016707F1C3068874209D2204600F034F9316869
S315080016808842ECD2207D0028E9D1F2BD0120F2BDC6
S315080016902046217B491C51E1F8B504460D461646FD
S315080016A000270DE020682179425C05F8012B2046C9
S315080016B0217B491E00F042F9204600F075F87F1C90
S315080016C03068874207D2204600F0E4F80028E9D0BF
S315080016D037600020F2BD37600120F2BD2DE9F041E8
S315080016E00546884617461C4600F0FDF8287B8742C3
S315080016F005D34FF6FF7121600020BDE8F081002672
S3150800170003E0007808F8010B761C21688E4207D2A0
S31508001710F119284600F081F80028F2D12660ECE796
S3150800172026600120E9E72DE9F04104468846164679
S3150800173000F0D9F8207B864203D34FF6FF70BDE848
S31508001740F081002700E07F1CE168F8B2C9B2884240
S3150800175009D2FDB2A919204600F05FF80078404585
S31508001760F1D12846EBE74FF47040E8E70068704788
S31508001770C068C0B27047407D704741750120704708
S31508001780417708467047407F70478177084670471B
S315080017904068C0B270474160084670478068C0B26A
S315080017A0704781600846704738B5044600F072F8FD
S315080017B008B1002032BD00F094F800F0BCF82D1AEC
S315080017C0022DB8BF002103DB00F0B6F8401CC1B2F9
S315080017D02046FFF7E0FF012032BD38B5044600F089
S315080017E065F80028204606D000F0AEF8A0B12046DD
S315080017F0FFF7DAFF204600F0A4F800F06FF82D1A7C
S31508001800022D01DA002103E000F069F8411CC9B293
S315080018102046FFF7C6FF012032BD70B504460D46C7
S3150800182000F061F8204600F035F8F0B92046FFF7D9
S315080018309FFFA84219D3204600F055F801282046F4
S3150800184015DBFFF795FF85420FD200F075F82D18C6
S3150800185000F047F8EDB2854202DB00F042F82D1A97
S315080018602046FFF783FFEDB212E0002070BD00F0BE
S3150800187068F8064600F060F8301A401B266801280A
S3150800188003DA00F048F9304470BD00F055F83044EA
S31508001890284470BD38B50446FFF77AFF00F01EF8F5
S315080018A0854201D1012032BD002032BD38B504463B
S315080018B0FFF774FF00F03FF82D1A00F012F8401EEB
S315080018C0854207D000F00BF800F035F82D1A15F10F
S315080018D0010F01D1012032BD002032BD0546204648
S315080018E05CE720462DE070B50446FFF757FF06462D
S315080018F000F022F8351A002D07DD2946204600F0AB
S315080019001DF8FFF7EEFF401B70BD0CD5FFF7E9FF8A
S315080019100646284600F0FFF80546711B204600F0EB
S315080019200DF8284670BD0021204600F007F820462D
S31508001930BDE8704005E00546204629E7C160C8B203
S3150800194070470069C0B27047007D70474AB1000011
S3150800195011F8013B521E00F8013B1CBF11F8013B70
S31508001960F8E770470146C88849884843000C70471D
S31508001970D2B2203A22BF00FA02F100207047524242
S31508001980D041D2F1200291404140D04090404140A0
S31508001990704710B5044610460A460146204600F030
S315080019A0CFF8204610BD0146703100204A78012A3A
S315080019B002D1002202204A700B78012B03D10022A3
S315080019C040F040000A70704770B5C51DED08AFF3CA
S315080019D00080ED00072D98BF08250C4E346814B119
S315080019E02068A84208D200F0E3F800283060F4D155
S315080019F0AFF30080002070BD6119451B14BF0D6050
S31508001A0000213160AFF30080204670BDA02200207F
S31508001A10D3BBD9B1B2F5803F5BD2022A1ED98C4618
S31508001A20B1FBF2F102FB11C31B0443EA1043B3FBFB
S31508001A30F2FC02FB1C3380B240EA0343B3FBF2F02C
S31508001A4002FB103240EA0C4000237047022A05D9EF
S31508001A508446B0FBF2F002FB10C270474AB105D1CA
S31508001A6000F0010249085FEA3000704700220023AF
S31508001A70704700F0B3B80B00020000210020704741
S31508001A80F7D3002200237047904271EB030CF2D380
S31508001A9070B5B1FA81F4B3FA83F52C1BA340C4F1EF
S31508001AA0200532FA05F63343A2405FF00046E640C9
S31508001AB002E05B085FEA3202841A71EB030524BF71
S31508001AC0204629467641F4D302000B003000002157
S31508001AD070BD70B5B1FA81F4B2FA82F5C4F120048A
S31508001AE06419B4F12006DAD3B2405FF00044F4403A
S31508001AF0002502E052085FEA3303C61A71EB020EAC
S31508001B0024BF3046714664416D41F3D302000B0091
S31508001B102000290070BD002848BF4042704700F5E4
S31508001B208E71087850B901200870002248684A70FA
S31508001B30016841F0200101600220704701207047CA
S31508001B4062F30F2262F31F42401810F0030308D015
S31508001B50C91A1FD3DB0748BF00F8012D28BF20F894
S31508001B60022D130030B414461546103928BF20E953
S31508001B703C00FAD8490728BF20E90C0048BF40F8BE
S31508001B80042D890028BF20F8022D48BF00F8012D32
S31508001B9030BC7047C91818BF00F8012DCB0728BFFD
S31508001BA000F8012D704700EB4100B0F9320070478C
S31508001BB00749086808B1002070470648C008C000F1
S31508001BC008600549C908C900091A0160704700BFBD
S31508001BD0A4220020B7260020B036002070470068EF
S31508001BE0012180F8221170478268DFF80C160A4036
S31508001BF042F008028260704730B5012908BF00210B
S31508001C001FD0042908BF01211BD0102908BF0221B3
S31508001C1017D0402908BF032113D0B1F5807F08BF2C
S31508001C2004210ED0B1F5806F08BF052109D0B1F5A2
S31508001C30805F08BF062104D0B1F5803F0CBF07219D
S31508001C4008210FF2E0630FF2E8655C5C695C183006
S31508001C500019DFF8A84503688C40A3438A401A4355
S31508001C60026030BD70B5012908BF00211FD00429C4
S31508001C7008BF01211BD0102908BF022117D040290F
S31508001C8008BF032113D0B1F5807F08BF04210ED009
S31508001C90B1F5806F08BF052109D0B1F5805F08BF8F
S31508001CA0062104D0B1F5803F0CBF0721082100F0BA
S31508001CB02DF82C43146070BD70B5012908BF0021AA
S31508001CC01FD0042908BF01211BD0102908BF0221F3
S31508001CD017D0402908BF032113D0B1F5807F08BF6C
S31508001CE004210ED0B1F5806F08BF052109D0B1F5E2
S31508001CF0805F08BF062104D0B1F5803F0CBF0721DD
S31508001D00082100F003F8AC43146070BD0FF21462AA
S31508001D100FF21C66535C1830C21808251468705CEC
S31508001D20854070474163704781637047C163704758
S31508001D3001647047426822F070021143416070479F
S31508001D40416C41F40041416470476FF00101016143
S31508001D507047006900F001007047C16841F0010151
S31508001D60C16070478161704781627047F8B5044663
S31508001D7004F15C050FF2A112A869466807680020FD
S31508001D8028606860A860A874316ADFF874040140A6
S31508001D903162626040210FF2E900A06104222982C3
S31508001DA0EA7484F83A20204600F0F0FB706800F0E8
S31508001DB070007028FAD1B968DFF83C04014041F098
S31508001DC00801B96004F16E03A86990F87B2000F059
S31508001DD052F8204600F026FC0020A8740FF2851160
S31508001DE06160E87484F83A00204600F0CFFBA869E1
S31508001DF090F87B2004F16E0300F03DF8204600F0D1
S31508001E0011FC28686968000928600909A8686960DA
S31508001E100009A860DFF8EC130FF275006160A06195
S31508001E2001213046FFF748FF10213046FFF744FFEF
S31508001E304FF480713046FFF73FFFA8897063A98980
S31508001E40B1630121A889F0633046FFF70BFF102123
S31508001E503046FFF707FF4FF480713046FFF702FF61
S31508001E60316A40F2555001433162042284F83A201F
S31508001E700020A875F1BD04F13801304600F0FFBB1B
S31508001E8000F13A0190F86F200A70C98D491E27E0C3
S31508001E90F8B500F13A02456F5188D38D35F8726F5F
S31508001EA05C1AA7B2BE4204D204211170D28D511E0B
S31508001EB013E097882404CF1BE40BBFB2BC4202D2BE
S31508001EC06A88891A09E071188CB29C4205D3802366
S31508001ED05386D28DC1EB4201491EBDE8F44000BFCE
S31508001EE089B270B504460D46606F4668618E304605
S31508001EF0FFF718FFA18E3046FFF716FFE18E304632
S31508001F00FFF714FF29463046FFF712FF706810F0F6
S31508001F10700018BF012070BD2DE9F041044604F198
S31508001F206E060D46606F717800EB81014A6A176884
S31508001F30CB6BD3F8008040680021FFF7FBFE3178B1
S31508001F40102909D2E06D216E3F188844E765C4F868
S31508001F5060803078401C3070002129806980BDE897
S31508001F60F081000070B500F164050C462869E97A2D
S31508001F7000EB81020021D36B1E684068FFF7DAFE8A
S31508001F80A87A102805D22968A87A7618401C2E60E7
S31508001F90A87200202CE1830C10B503F03C039A4A82
S31508001FA0D3189A4A1C686FF30F142143196000F07E
S31508001FB0010153680B435360012400F010001368B5
S31508001FC0934904FA00F0034083420AD10868914A0B
S31508001FD0B0FBF2F00C214843002818BF401EFBD185
S31508001FE010BD13681843106008688A49B0FBF1F001
S31508001FF0C0EB0010002800E0401EFDD110BD38B52A
S315080020000446606F456894F84700002837D1602277
S31508002010012100F044F8286A40F0010028620021F6
S31508002020286A20F0040028626963606F90F87A00D5
S3150800203001280AD1102200F031F8286A20F0100091
S315080020402862286A40F040000BE002280AD12022C4
S3150800205000F024F8286A40F010002862286A20F068
S315080020604000286270224FF4807100F018F8286A40
S3150800207020F480702862286A20F4806028620FF2B3
S3150800208039100FF2A511606061610FF2E51062491F
S31508002090E060A160012084F8470031BD1021284680
S315080020A0AAE570B5044604F16805E868466894F838
S315080020B0470001285FD13168C806FCD53168CB06D0
S315080020C0FCD4602201213046FFF796FD306A40F0C5
S315080020D0010000F051F803D1306A40F0040004E032
S315080020E0022803D1306A20F00400306228884008AC
S315080020F07063602210213046FFF77EFD306A40F09B
S31508002100100000F039F803D1306A40F0400004E0CE
S31508002110022803D1306A20F040003062288840083F
S31508002120B06360224FF480713046FFF765FD306A70
S3150800213040F4807000F020F803D1306A40F48060E3
S3150800214004E0022803D1306A20F4806030622888CF
S315080021504008F063E8680068C16821F48011C1602E
S3150800216028482E49606061612D482B49E060A160CE
S31508002170002084F8470070BD3062E86890F87A005D
S315080021800128704710B5024602F13A03506FDC8DFC
S3150800219040686143090C518603211970538E4363C5
S315080021A04068118F10F0700018BF0120012902D174
S315080021B000210120118710BD70B5054605F160069E
S315080021C00C46726950680021FFF7B4FD706995F8EE
S315080021D03A20316800EB8203D86B0068081A114967
S315080021E0884203DD47F6FF71884200DB084600BFD8
S315080021F02080608070BD0000C0FFFF7F7300010073
S31508002200AAFAFFFFA1A8000808740040007400405D
S315080022108415002080841E002526000859530008CE
S315080022208D2500080180FFFF38B504460021606F40
S315080022304568696300F06EF82846FFF78AFD0028AE
S31508002240FAD000F067F82846FFF77AFD00F05CF848
S315080022500CD109888069FFF785FD00F05DF8606F8D
S31508002260B0F87010006ABDE834407DE531BD000065
S31508002270F8B5044604F13A07606F45680668002019
S3150800228038722968C806FCD42968C806FCD5012115
S3150800229069632846F98D491FFFF74AFD00F03AF8A9
S315080022A02846FFF756FD0028FAD000F033F8686C88
S315080022B040F4806068642846FFF742FD00F024F881
S315080022C019D1098880692A6A40F255531A4208D0FA
S315080022D0FFF748FD606FB0F86E10C069FFF742FD62
S315080022E003E0FFF741FD00F017F8606FB0F87010D3
S315080022F0006AFFF739FD032038703046FFF774FC93
S315080023002846BDE8F24028E5606F00F16C018A7B3B
S31508002310022A7047284618E5606FB0F86E10C06943
S3150800232022E50000000000000404043C3C00000014
S315080023300000080000000800080000002DE9F84F1A
S3150800234080460422D8F8740007688468C668D0F8FE
S3150800235010A0D0F814904568796821F004017960D6
S315080023603A602022796821F0200179603A60804934
S315080023708D4204D17F490A6842F001020A60DFF8FB
S31508002380F8B1A4B17630C179012908D0226802F0E3
S315080023907002402A03D101885846FFF7FCFD2268DF
S315080023A042F001022260206840F0004020603EB101
S315080023B0306840F001003060316841F0004131601A
S315080023C0BAF1000F0BD0DAF8000040F00100CAF8A5
S315080023D00000DAF8001041F00041CAF80010B9F11F
S315080023E0000F1BD0D8F874007830017A012909D07B
S315080023F0D9F8002002F07002402A03D10188584615
S31508002400FFF7C9FDD9F8000040F00100C9F800003F
S31508002410D9F8001041F00041C9F80010B868C107A2
S3150800242041D4B868554900F04050B0F1805F15D0E6
S31508002430B868534A534B20F04050B860B868084013
S3150800244040F08050B8601068B0FBF3F3009302E0E8
S315080024500098401E009000980028F9D1BA684A48AA
S31508002460024042F00042BA60B868C00FFCD1386832
S31508002470C207B8685EBF084040F00100B860F6D5EC
S31508002480084040F00800B860B868014041F02001F3
S31508002490B9604021F86840F40010F860396078683F
S315080024A040F0400078604FF47A742868400840008D
S315080024B028602846696821F0700169600121FFF7E4
S315080024C0D1FB10212846FFF7CDFB4FF48071284633
S315080024D0FFF7C8FB4FF480512846FFF7C3FB68692E
S315080024E040F00100686108F14602D8F8740000F16E
S315080024F07B01887902280DD1C879012804BF0B7899
S31508002500032B0CD1286303266B6943F001036B6127
S315080025102E6304E0107880B90878012803D1508C1E
S31508002520401E686209E0032807D1012028630320BA
S315080025306A6942F001026A6128636FF080022A61C3
S31508002540487820B908E06FF480712961641E28690B
S31508002550C10501D5002CF6D1E86840F08000E86096
S3150800256040F25550296A01432962BDE8F18F00BF40
S31508002570002C01400C2004E001001002C0FFFF7F80
S3150800258084150020400D0300C0FFFF3F70B5416F62
S31508002590496800F142020023D48C137064084C6326
S315080025A0D38C5B088B63D38C5B08CB63D28C521FAE
S315080025B00A646FF001020A610B69DC07FCD50A613F
S315080025C04B6C43F480634B644B6C43F400434B649D
S315080025D0436F03F16C04A57B022D1DD124889B69EA
S315080025E00D6A40F2555635420BD09C61436FB3F8DD
S315080025F06E40DB699C61406FB0F87030006A836199
S315080026000AE09C62436FB3F86E40DB699C62406FD8
S31508002610B0F87030006A83620A61C86840F0010049
S31508002620C86070BD10B5416F4968CA685208520043
S31508002630CA60002380F842304A6C22F400424A6499
S3150800264090F87220012A12D0426F02F16C039C7B2B
S31508002650022C0CD192691B889362426FB2F86E30D5
S31508002660D2699362406FB0F87020006A82626FF098
S31508002670010008610A69D307FCD5086110BDF0B5E9
S315080026800468521C04F06004602C1CBF1204520C2F
S315080026906FF002045205046100251E78102E0DD233
S315080026A00669B707F9D56D1CAEB2B6EB124F0461D1
S315080026B0F3DB1F78102FF0D201200880F0BD0068E8
S315080026C0012180F8231170472DE9F0478AB00020D0
S315080026D0DFF890683AB1012A11D0C82A0ED0FF2A2D
S315080026E000F0948191E1FEF7CFFE1621DFF87828F5
S315080026F048431118D1F80B000068706683E1706EC4
S31508002700072101918068FFF733F801998842F5D3CC
S31508002710706E806801AB00223146FEF7DFFF7078E5
S3150800272000F03F00C01D019001AA706E8068314616
S31508002730FEF7B2FFB078702849D100208DF8000066
S3150800274003AA7079694600F06DF99DF80010B06625
S31508002750012914D10FF6280191E8380005AA05A920
S3150800276082E83800727948724A7103120214001618
S315080027708871CA710C200B72029002AA22E0032902
S3150800278024D105A80FF604011422FFF7DFF805A8DF
S315080027907179B2794171827103A9CA788B78C2714D
S315080027A003724A789DF80C30427283724A790B7923
S315080027B0C2720373CA7989794273817311200290B0
S315080027C002AA05A9706E4069FEF743FF1BE171284E
S315080027D0FCD1F479B17996F8089096F809E0DFF813
S315080027E08C07DFF88C8704EB012209EB02230EEB3A
S315080027F00325DFF88037D3F800C00268DFF878379A
S31508002800D8F8000002F1300A1A6873790A27032BF0
S315080028102FD0052B42D0062B42D0072B42D0082BAF
S3150800282042D0092B46D00A2B46D00B2B46D00C2B70
S3150800283046D00D2B4FD00E2B52D00F2B55D0102B28
S3150800284058D0112B69D0142B00F07D80152B00F081
S315080028508D801C2B00F0A0801D2B00F0A080412B42
S3150800286000F0A0805B2B00F0A180C12B00F0A780B0
S31508002870C9E0E9B241B900F093FB0146D8F8000077
S31508002880002200F091FBBEE0EDB2012DFBD100F075
S3150800289094FB0146D8F8000000228DE010681BE082
S315080028A010681EE0106821E000F08AFB0090ADF881
S315080028B000500AE050680FE0506812E0506815E0D2
S315080028C000F07EFB0090ADF802500099D8F80000A1
S315080028D000F07DFB97E0906829B200F087FB92E054
S315080028E0906829B200F084FB8DE0906829B200F068
S315080028F081FB88E000F091F808BF946900F089F838
S3150800290008BFD469002CF4D000F021FB204600F063
S3150800291073FBBDF9002029B211E000F07EF808BF6C
S31508002920946900F076F808BFD469002C6BD000F0E3
S315080029300AFB204600F060FBBDF900102AB22046CB
S3150800294000F05FFB5FE000F068F808BF946900F0EC
S3150800295060F808BFD469002C55D000F0F4FA204678
S3150800296000F052FBBDF900102AB211E000F055F84C
S3150800297008BF946900F04DF808BFD469002C42D00E
S3150800298000F0E5FA204600F03FFBBDF9002029B229
S31508002990204600F048FB36E08AF8001033E08AF853
S315080029A0011030E029B200F04CFB2CE07D433C21BD
S315080029B095FBF1F1002209B200F047FB23E0B07A5B
S315080029C0CE4470440D4604EB0024F17A307BD2F8ED
S315080029D0149001EB0028707BB17B00EB012292B2C8
S315080029E02946484600F038FB67433C2097FBF0F23F
S315080029F012B22946484600F034FB0FFA88F22946F7
S31508002A00484600F033FB012000E0FF200AB0BDE88D
S31508002A10F087CCF303600928704700244FEA1C703E
S31508002A20092870472DE9FC47164601280C46DFF8A9
S31508002A304C55DFF83C75DFF840254FF03C0800F0B0
S31508002A40A180022800F0A380032800F0A5800428AE
S31508002A5000F0A680052800F0A580062800F0A780CB
S31508002A60072800F0A980082800F0AB80092800F0A4
S31508002A70AC800A2800F0AE800B2800F0B0800C2845
S31508002A8071D00D2800F0B0800E2800F0B2800F2813
S31508002A9000F0B480102800F0B680112800F0C58038
S31508002AA0142800F0D480152800F0E380192800F0D7
S31508002AB0F2801A2800F0F4801B2800F0FB811C28FD
S31508002AC000F0F3801D2800F0F5801E2800F0F9803C
S31508002AD01F2800F0FA80202800F0FA80222800F04B
S31508002AE0FA80232800F0FF80242800F0008125289A
S31508002AF000F00181262800F00281272800F00381D2
S31508002B00282800F00381292800F003812A282AD0E2
S31508002B102B2800F002812C2800F003812D2800F0D4
S31508002B2004812E2800F00581312800F0068132281C
S31508002B3000F01381332800F02181342800F02E811B
S31508002B40352800F03B81362800F04C813D2800F0FE
S31508002B5059813E2800F05E813F2800F063814028B5
S31508002B6000F06A81412800F06C81422800F07181EA
S31508002B70432800F07E815B2800F08D81C02800F094
S31508002B809C81C7E13968086800F075FA81E1386800
S31508002B90006800F076FA7CE1386800F074FA78E1AB
S31508002BA0386883E11068006800F06FFA71E1106810
S31508002BB0006800F06DFA6CE11068006800F06BFAC6
S31508002BC067E1386800F0FCF907E11068406800F032
S31508002BD05CFA5EE11068406800F05AFA59E110683C
S31508002BE0406800F058FA54E11068806800F04DFA21
S31508002BF04FE11068806800F04BFA4AE11068806877
S31508002C0000F049FA45E100F0A6F904BF10688069AA
S31508002C1000F092F904BF1068C06918B100F093F982
S31508002C2000F0EAF9BDF9000033E100F094F904BFB9
S31508002C301068806900F080F904BF1068C06918B18F
S31508002C4000F085F900F0D8F9BDF9000021E100F09F
S31508002C5082F904BF1068806900F06EF904BF106835
S31508002C60C06918B100F073F900F0CEF9BDF900009B
S31508002C700FE100F070F904BF1068806900F05CF994
S31508002C8004BF1068C06918B100F05DF900F0BCF91E
S31508002C90BDF90000FDE01068006BFEF763FEF8E082
S31508002CA01068C06A00F0FAF9F3E0B048016891F8D4
S31508002CB03000FFE0AD48016801F13002012150788B
S31508002CC027E1386800F0FCF9F2E000F039F984E011
S31508002CD000F036F9B8E01068406908B900F0D9B8CC
S31508002CE000F0F6F9D5E0386800F0F5F975E03868CF
S31508002CF000F0F1F9A8E0386800F0F4F96DE03868FA
S31508002D0000F0F0F9A0E000F01BF966E000F018F911
S31508002D109AE0386800F054F95FE0386800F0E9F99D
S31508002D205BE0386800F0E5F98EE0386800F0E9F90C
S31508002D3053E0386800F0E5F94FE000F0F7F804BF13
S31508002D401168896900F0EEF804BF1168C96900299D
S31508002D500ED0084600F0DDF99BE000F0E7F804BF66
S31508002D601168896900F0DEF804BF1168C96900298D
S31508002D7000F0D080084600F0CFF98AE000F0D6F8D7
S31508002D8004BF1168896900F0CDF804BF1168C969E4
S31508002D90002969D0084600F0C9F91EE000F0C6F817
S31508002DA004BF1168896900F0BDF804BF1168C969D4
S31508002DB0002959D0084600F0B9F945E000F0B6F800
S31508002DC004BF1168896900F0ADF804BF1168C969C4
S31508002DD0002949D0084600F0B7F900900121BDF94D
S31508002DE0000096E000F0A2F804BF1168896900F0B7
S31508002DF099F804BF1168C969002935D0084600F05A
S31508002E00A3F921E02A691AB100212846904740E033
S31508002E1000203EE02A691AB101212846904738E089
S31508002E20002036E01068406A00F09AF908FB00F1C5
S31508002E300A2091FBF0F02CE01268506A00F092F933
S31508002E4036E0386800F0BCF800900121BDF90200B0
S31508002E505FE000F06BF804BF1168896900F062F85A
S31508002E6004BF1168C969002954D0084600F07DF9E5
S31508002E700EE000F05BF804BF1168896900F052F8AB
S31508002E8004BF1168C969002944D0084600F070F9E2
S31508002E90001401213DE0386800F0F5F8012838688B
S31508002EA004D100F068F900F037F833E000F085F84F
S31508002EB000F032F8012222702CE013685D6995B1A2
S31508002EC0DFF8A0A09AF80610284600F05CF9074635
S31508002ED09AF80610284600F05BF981469AF806101B
S31508002EE0284600F05BF919FB08F10A2291FBF2F17A
S31508002EF0317030710B120D14091600127370B5700B
S31508002F00F1707071B7714FF0FF303F043F0EF771E3
S31508002F1003212170BDE8F68710FB08F00A2190FB13
S31508002F20F1F07047C3F30363092B7047114B1B6815
S31508002F3000211D0F092D7047C1F303610929704748
S31508002F40386800F031B90DF10202694670476A46E1
S31508002F500DF1020170470748016800200B0F092B85
S31508002F6070470000741D0020F813002090220020EE
S31508002F7060130020681300206413002084100020CA
S31508002F8055057000000000000000CCCC550A700002
S31508002F900000000000000000000000CCCC0000008B
S31508002FA08068B0F91E0070470182C282022301219F
S31508002FB000220373017642767047406800F0FBB83A
S31508002FC081B0806801690091084601B0704702B473
S31508002FD003210173BDF8002042820122BDF80210C8
S31508002FE0818202760021417601B070478180704760
S31508002FF0C180704741847047438C0B80C08C108019
S3150800300070474184C284704770B504460D4616461B
S3150800301004F1340000F039F8288004F1340000F097
S3150800302037F8308070BD38B50446154604F13400CB
S31508003030FFF7DCFF294604F13400BDE83440FFF70A
S31508003040D7BF806841828182704701230373C1819B
S31508003050C2820376437670470C235943084482811B
S3150800306070470C2359430844C28170470C235943BF
S3150800307008440282704701468888498840EA014028
S31508003080704700787047407E7047B0F90400704773
S31508003090B0F906007047B0F922007047017861B9A7
S315080030A0018A026A8A1AB0F91E10808C4A43D31321
S315080030B002EB1342A0EB224000E0808A00B2704780
S315080030C080B5406800F07DF8BDE8024000F07BB8A6
S315080030D090F84800704781B08068016800910846FA
S315080030E001B0704781B0806841680091084601B018
S315080030F0704781B08068D0F816100091084601B074
S31508003100704781B08068D0F81A100091084601B05F
S315080031107047B0F904007047B0F90C10B0F9140004
S31508003120C1EBC13191FBF0F000B2704781B0B0F845
S315080031301C11026E0A41ADF80020406E0841ADF838
S315080031400200009801B0704781B0B0F97010ADF870
S315080031500010B0F87200ADF80200009801B0704790
S31508003160C08B7047B0F924007047D0F8000170474B
S31508003170D0F8FC007047014600200A7B012A08BFE8
S31508003180B1F90E0070470C225143084480897047F4
S315080031900C2251430844B0F90E0070470C225143E3
S315080031A00844B0F91000704781B08068C168009182
S315080031B0084601B070474068C11300EB114000147F
S315080031C0704740697047B0F90C007047010008D491
S315080031D0012200F01F01DFF844378A40400943F80E
S315080031E0202070470901020003D4DFF83407815410
S315080031F07047DFF8303702F00F021A4402F8041C51
S31508003200704730B500F007000123C0F10704052C0C
S315080032102EBF0F2403FA04F4641E051D072D34BFC0
S315080032200020C01E2140814003FA00F0401E1040D5
S31508003230084330BD10B501F01F01C1F11A01C36C76
S315080032404FF0F844CC4002F0F842A343CA401A4370
S31508003250C26410BDCB0D10B5143003F00403181862
S31508003260090D01F01F01036807248C40A34302FAE5
S3150800327001F11943016010BD70B502F01802DFF8BC
S31508003280A856D0F8B06025FA02F305EA01041940F9
S31508003290A64329403143C0F8B01070BDDFF88C163C
S315080032A081B00A6802430A600968084000900098DD
S315080032B001B0704770B5012908BF00211FD0042945
S315080032C008BF01211BD0102908BF022117D04029A9
S315080032D008BF032113D0B1F5807F08BF04210ED0A3
S315080032E0B1F5806F08BF052109D0B1F5805F08BF29
S315080032F0062104D0B1F5803F0CBF0721082100F054
S3150800330035F804251468705C8540AC43146070BDBC
S3150800331070B5012908BF00211FD0042908BF012163
S315080033201BD0102908BF022117D0402908BF032146
S3150800333013D0B1F5807F08BF04210ED0B1F5806F98
S3150800334008BF052109D0B1F5805F08BF062104D062
S31508003350B1F5803F0CBF0721082100F007F80825C2
S315080033601468705C85402C43146070BD0FF230629F
S315080033700FF23866535C1830C2187047F8B59EB01D
S3150800338040F2FF31DFF8A805DFF8A845DFF8A865A1
S3150800339000F0F4FA0BF099FA09F0A0F900F06DFACA
S315080033A000F068FA00F063FA0C22002105A8FEF77F
S315080033B0F0FA182200210EA8FEF7EBFA04220021E3
S315080033C06846FEF7E6FA00F031FA1822002108A846
S315080033D0FEF7DFFA4FF08050FFF760FF00F04AFA79
S315080033E000F045FA432000F026FA00F02BFA0120F7
S315080033F000F021FA204608F0AFFE002020210590B3
S315080034000691079005A94FF0A04009F061FA00213E
S315080034100E9110910022012112910F92119213928E
S315080034200EA94FF0A04009F066FA4FF0A0454FF4F8
S315080034308031686820F004006860686820F0080039
S31508003440686000916946DFF8F40409F031FA402112
S3150800345001910222002103910491029200F0CEF913
S3150800346000F0DAF9082100F0D1F900F0CBF900F004
S31508003470BCF9E86C00F0BDF9E868DFF8C46400F050
S31508003480CCF94FF4877100F0C1F900F0BBF900F0F0
S31508003490ACF9E86CDFF8AC6400F0ABF900F0BCF905
S315080034A04FF4057100F0B2F900F0ACF900F09DF99F
S315080034B0E86CDFF8946420F0C00040F04000E8644F
S315080034C00522286B20F4F86040F4307028634FF02A
S315080034D0A040DFF878542946FFF7BCFE7F2229462C
S315080034E04FF0A040FFF7C8FE00F0A0F9182200210F
S315080034F005A8FEF74EFADFF85854686840F0005001
S315080035006860686800F000500090009800F0B2F912
S3150800351010200321059006910022099205A900F0C2
S3150800352091F9382000210222019002910492304636
S3150800353001AADFF8201400F03FFA306840F00400D2
S315080035403060142200210FA8FEF723FA202200215A
S3150800355006A8FEF71EFA2822002114A8FEF719FA73
S31508003560182200216846FEF714FA286840F400601D
S3150800357028604FF480762968DFF8DC7301F400616F
S315080035800E914FF400650E9800F074F9022101912E
S315080035900022029203920C210122059104920095C1
S315080035A0694600F04FF92021109100200121ADF85D
S315080035B03C004FF448628DF84C10119212960FA9F0
S315080035C0384609F04DFA386820F080003860012145
S315080035D000F009F9602100220691079208920992E3
S315080035E00A920B920C920D92012100F0F8F8012133
S315080035F000F0F3F8102100F0F6F800210791089181
S3150800360006AA102100F0ECF8102100F0E6F8314681
S3150800361000F0E9F800210791089106AA314600F062
S31508003620DFF8314600F0D9F84FF4805100F0DBF8A6
S31508003630002207920892702140F67F42069109926D
S315080036404FF4805100F0CBF84FF4805100F0C5F8E4
S31508003650B86820F0700040F01000B860B968BF483C
S31508003660014041F00601B9604FF48061F86820F026
S315080036704000F860F86820F48040F860786840F008
S3150800368070007860786820F470007860B86820F078
S315080036908000B86014951591169630218DF85C1047
S315080036A000224FF400511891ADF85E2019921A9233
S315080036B01B921C921D9214A9384609F057FB00F07C
S315080036C0D6F800F0D7F84FF4C04100F0BFF820460E
S315080036D008F042FD4FF400410091022201920321B5
S315080036E0029100220392022104910422059269465E
S315080036F0204608F031FD4FF4E06100F0A7F800F02D
S31508003700A1F800F083F9FDF727FF40F6C41200235D
S31508003710934C944D80185941C4E90001D5F810011D
S31508003720FEF720F93228F9DBFDF716FFD4E9002366
S315080037308B42F9D828BF8242F6D24020FFF7AEFD69
S3150800374089488A4C0168754D21F06001016041F293
S315080037502101026822F080020260C1604FF6FF7103
S31508003760026822F0180242F0080202608160012213
S3150800377020680421C0F30220FFF743FD0146182004
S31508003780FFF730FD1820FFF721FD2068002200F022
S315080037906AF801461920FFF725FD1920FFF716FDDF
S315080037A0206800220221C0F30220FFF72AFD014605
S315080037B01220FFF717FD4FF48020286000222068AA
S315080037C000F051F801462520FFF70CFD202068601F
S315080037D0FDF794FDFDF7A0FDFEE738466AE506AA63
S315080037E0384609F070B9384692E57F2231462846B0
S315080037F042E520F0C00040F04000E86401A92846F0
S3150800380009F0A6B805223146284623E5686820F05F
S315080038104000686028460DE5E86840F40010E86056
S315080038203246686820F02000686070471022002140
S3150800383001A8FEF7AEB803210890099100220C9260
S3150800384008A970474FF0904008F086BC0091022204
S315080038500192032102910022039202210491062279
S315080038600592694670470021C0F30220C9E44FF467
S31508003870802013E54FF4003010E538B53C483D4C40
S315080038800168C908C90041F00201016000682168A1
S3150800389041F00101216020688007FCD5216821F0EC
S315080038A0F80141F080012160606820F4741040F44A
S315080038B060106060E06A00090001E062216841F07A
S315080038C08071216020688001FCD5616821F0F001D3
S315080038D06160606820F4E06040F480606060606861
S315080038E020F46050606060688008800040F0020044
S315080038F06060606800F00C000828FAD11E4D284662
S3150800390008F0D8FE284608F0E1FE042008F092FDEB
S31508003910206B20F48070206331BD000000E100E0D8
S3150800392000E400E018ED00E0FEFF07001410024076
S31508003930401D002000040048020030040003005027
S31508003940040060080004002A007400400008302EB5
S315080039501810024001001002002C0140F8FFFEFF7B
S3150800396078220020D80B0020083002400CED00E039
S31508003970002002400010024000A24A0481B04A0812
S31508003980009207E0009A821AFF2302F8013D009B85
S315080039905B1C0093009A8A42F4D301B0704700007A
S315080039A0000000000404043C3C000000000008007D
S315080039B00000080008000000F0B501F0100101241D
S315080039C005688C4000232540A54208BF01231BD06B
S315080039D0D5685468166874B134430768926840F627
S315080039E0FA7C14430CFA01FC254327EA0C0705FA6E
S315080039F001F1394307E00468FA278F403543BC4391
S31508003A0005FA01F1214301601846F0BD1CB508F01E
S31508003A10FFFC4FF4FA61B0FBF1F008F028FF084C00
S31508003A20211D204600F01CF800F01EF905480090FC
S31508003A30231D2246012104F1080000F055F913BDA3
S31508003A406013002038AD000881B041F48032C261AD
S31508003A50C161C261C0690090009901B07047000059
S31508003A602DE9F34F684C81B0201D00F0A7F967488F
S31508003A70DFF89CB1674E684FDFF8A081DFF8A091A8
S31508003A80DFF8A0A1684DA063002168482170206373
S31508003A90FEF754FC66480188ABF81A10C189F18014
S31508003AA0028A3281B0F908103182B0F90A2072828E
S31508003AB0B0F90C00B08200F089F900F0B7F9384681
S31508003AC000F0E0FAE7615B485B4FA061384600F01A
S31508003AD0E3FAE169A0693A4600F018FB404600F0AF
S31508003AE028FB206BA169554B00904246484600F0DA
S31508003AF022FB504600F0C6FA284600F0C3FAC4F87E
S31508003B0020A065624E48DFF83CA14F4DA06200F048
S31508003B1038FB4E48A16A606300F586704160C0F8BC
S31508003B2000A0284600F03AFBE5620AF11405484869
S31508003B30E06300F046FB002000F05EFB01202874DD
S31508003B40A06900F099FBCAF81000A06900F094FB80
S31508003B50009004F15001BDF80200288061615346C7
S31508003B60A269211D04F1500000F091FBA06900F044
S31508003B7098FB014660690022FFF767FA01996069B8
S31508003B800860E26933480260216A41600021626A7E
S31508003B908260C160226BC1610261C0F814908761BE
S31508003BA0C0F82080221DA16941628262E16AC16271
S31508003BB00022A16A4263002301638363626B264F76
S31508003BC0264DC263036443648364C3640365029A2F
S31508003BD01060234A234800F067FB0C21201D00F0E3
S31508003BE07BFB384600F04EFA284600F04BFAA169EE
S31508003BF0584600F00AFC276465640120C4F848B0FA
S31508003C00E6642070BDE8F78FE0120020F01000206F
S31508003C10C4130020E0130020C00F0020380F002036
S31508003C20C00E0020EC0F002018100020140E0020F3
S31508003C304EF000088C0E0020EC0C00205C100020D2
S31508003C40980F002024210020700F0020D80B002098
S31508003C50441000205C1F00206C13002098130020DD
S31508003C60582200207010002010B54FF480714FF0D4
S31508003C709040FFF7E9FE4FF400714FF09040FFF7D0
S31508003C80E3FE4FF400614FF09040FFF7DDFE154C60
S31508003C904FF480412046FFF7D7FE4FF480614FF07E
S31508003CA09040FFF7D1FE4FF400412046FFF7CCFEC7
S31508003CB04FF400512046FFF7C7FE02214FF090400F
S31508003CC0FFF7C2FE01214FF09040FFF7BDFE4021ED
S31508003CD04FF09040FFF7B8FE2046BDE8104001219E
S31508003CE0FFF7B2BE000400482DE9FF47204E214FDA
S31508003CF0DFF884A004460D46904699463760384654
S31508003D0051463022FDF722FE00944B46424629468C
S31508003D10384600F04FFD3068184F00F055FD306802
S31508003D202F22002100F05AFD30682422012100F0DC
S31508003D3055FD1348706051463022FDF707FE384698
S31508003D4000F059FD0C980F4A0F4B0290316801910B
S31508003D500092394670680D4A00F050FD00944B46B3
S31508003D6070684246294600F025FDBDE8FF8700BF7A
S31508003D7090220020B410002084100020A4110020F6
S31508003D80701B002027AE00081F1B00088FA600081E
S31508003D900949088810B10A88501E08804A88022AEC
S31508003DA002D34888421E4A808888022802D3888817
S31508003DB0421E8A80704700BF7015002000210170DE
S31508003DC041808180704700000100020015481649AD
S31508003DD081B00268D20711D4036843F00103036077
S31508003DE0026802F001020092009A0B6943F001038F
S31508003DF00B61016849084900016011E008680A6812
S31508003E0022F0700242F020020A6000F070000A698F
S31508003E1042F001020A610B6823F070031843086038
S31508003E2001B070471C100240040000402DE9F84F0D
S31508003E30854C864D864FDFF81C822DED028B208837
S31508003E4085F84D02687005F5DF76E08830814FF019
S31508003E500A0A00B2404270816FF03B0B608C3073E7
S31508003E6005F53A70B4F91410018305F51879B4F913
S31508003E7016204283B4F91810A5F82C1305F54B71D2
S31508003E80B4F91A204A80B4F91C10B986B4F91E2070
S31508003E90FA86218C0A46930352423B6492037A645B
S31508003EA0018009B249424180A08D7084B4F92E1070
S31508003EB0B18405F5F671B4F93000F08405F5F470AF
S31508003EC00160628E8280B4F93410C18005F5FC71F8
S31508003ED0B4F936200281C160228F0282B4F93A1001
S31508003EE0418205F50171B4F93C2082828161E28F35
S31508003EF08283B8F90010C18305F50471B8F9022068
S31508003F0002844162B8F804200285B8F90610418592
S31508003F100021B8F90820828501634FF4B660A884A9
S31508003F203C2261890AFB01F191FBF2F0308091FB9A
S31508003F30FBFBA6F806B000F083FC4FF06632464B52
S31508003F4000F090FC00F060FD05F58D7BA9F80000F7
S31508003F50A882ABF800003C21A0890AFB00F36FF0A9
S31508003F603B0293FBF1F093FBF2F27080B280A9F862
S31508003F700200E88205F54B72668AD662B8F80A002E
S31508003F80704300F05FFD0022344B00F069FD00F03D
S31508003F903BFDA9F82200A9F806606E833049B1FBFB
S31508003FA0F6F18AB24DF6B450424305F5BC70920B51
S31508003FB00180ABF83E200904490C0183A08CC0EBB4
S31508003FC0004000F03DFC274A274B00F049FD00F071
S31508003FD01BFDF88440F20B21E08CC0EB004090FBFF
S31508003FE0F1F13985208D323800F02AFC1F4A204B22
S31508003FF000F038FC02460B464FF033301D4900F0FE
S3150800400053FE00221C4B00F02DFC41EC180B00F06F
S31508004010FBFCA9F83E0053EC182B1848184900F089
S31508004020B5FE00F0F1FC3880B4F90E00A886B4F9A4
S315080040301010E986B8F832006884B8F83410E984B4
S31508004040BDEC028BBDE8F18F00F00008EC0C0020F7
S315080040508C0F002040F000086666F23F00408F4053
S315080040600090D003E7799EE7795E80409CC420B033
S315080040707268913F33330940C064D340C3F5285C66
S315080040800F60AAC0018842888180C2800022018C04
S31508004090418482608262704710B50446194800213F
S315080040A08181817304F1F60094F8161101700122DA
S315080040B082730121B4F92E20134890FBF2F000B266
S315080040C0002205E000EBD070C00300144900521C22
S315080040D00028F7D121866286B4F92E00B4F930108B
S315080040E010FB01F142F6BE0291FBF2F26285204610
S315080040F000F009FF04F13400FFF7C4FF00206082D6
S3150800410010BD00BF3C2200205EEA0F00016142613B
S3150800411000F12A010A7802700022B1F902301B0464
S315080041204360B1F90410428009048160C26082616B
S31508004130704700F012BFF0B5059F044604F1480524
S3150800414000266A6204F10C0000222962AB62EF6263
S315080041502E736A7301E08068761C10B1F1B20529E6
S31508004160F9D3F2B20C204243A018002181602E70C8
S31508004170642123884B434FF47A70B3FBF0F0A8739D
S31508004180F0BD10B5044604F10C0000F0FBFE84F8FF
S3150800419026002046BDE8104000F0D4BF10B50446FE
S315080041A0207848B9201D00F0EDFE84F82600204648
S315080041B0BDE8104000F0DCBF618A21820020E08261
S315080041C010BD002181604160C1600161012141612A
S315080041D07047C3688268012B03D901698A185B1E78
S315080041E004E004D1426841694A430023C3608260FF
S315080041F0406992FBF0F070471FB50446042200217F
S3150800420002A8FDF7C6FB042200216846FDF7C1FB9C
S315080042100422002101A8FDF7BCFB26211448029AB6
S3150800422011FB04F10844026001994160009AC260DA
S31508004230002200990161C2830099C0F81610002176
S31508004240019AC0F81A2001840A4800EB8404206AFF
S3150800425000F092FF606A002100F08EFFA06900F06E
S315080042608DFF206B00F092FF00F0F1FF1FBD00BF2D
S3150800427024210020E012002081B0B0F92E10ADF8FC
S315080042800010008EADF80200009801B0704701607A
S315080042904260002183600173C1810182C182017677
S315080042A07047B0F92C007047016042600221017224
S315080042B000224281038AC1894B434FF47A72B3FBC9
S315080042C0F2F1491E4FF6FF72914288BF114601D896
S315080042D001B901218181704710B502780024142A9A
S315080042E00ED8DFE802F0181E4E2A414C4E505255A1
S315080042F00D0D0B24262834363E453C000A004BD0CB
S3150800430003291CBF0129072903D00022802100F0B8
S31508004310ADFF204610BD0A46032A3DD0012A39D1F1
S315080043203AE0072918BF0D2936D00E292EE00E29A6
S3150800433018E00F2916E0022914E0072918BF1029EA
S315080043402AD0042918BF112926D001291EE01129CF
S3150800435008E0122918BF07291ED0142916E01229C9
S3150800436000E004290DD117E00A46132A03D113E009
S315080043700A46042A10D0072A0ED0052A06E006297E
S315080043800AD0072902E0082900E00929B8D103E084
S315080043900A0001D00C2AB3D101240170B9E70E0036
S315080043A0F8B5044616460D46304600F077FF074630
S315080043B0218B70880904B1FBF0F03F1A00F070FFFA
S315080043C004463946284600F071FF10FB04F0F2BD9A
S315080043D038B50D460446B2F90E10B2F90C0011FBB9
S315080043E001F110FB001000F099FFA168411A284658
S315080043F000F05CFFB4F90C20A1684A431212801A37
S315080044000028C8BF0020226132BD10B5044648699D
S31508004410FEF7D9FE6E49A08000F086F812FB00F27E
S315080044204243121213FB00204118616110BD0000BF
S31508004430F8B5044658690D461646FEF7C4FE654F9C
S31508004440A0800100397844BF404200B202290ADB45
S315080044505F4900F069F842434243121210FB0322F7
S31508004460511861610021491C39702178069B079A09
S31508004470052958D8DFE801F0030B1723304E4128E9
S31508004480ACBF0120032020700020387021E061694C
S31508004490A7688F42A6BF0227277007F10A0141289D
S315080044A0A16016DA03E06169A160412811DA0320E8
S315080044B020706FF004010527F182B78209E0A16830
S315080044C00A2904DC60800A210420207000E00A39E9
S315080044D0A16000F030F8F1BDB4F902E0B3214FF065
S315080044E04D0C1EFB01F11CFB001080300012608091
S315080044F000F021F8B4F90200142814DA00217980B2
S31508004500354D2846FEF78EF8284600F025FF05208B
S315080045102070F1BD788841F289329042A4BF002309
S315080045202370401C7880F1BDB1F90020B1F9023042
S31508004530B1F9041070470092294632462046FFE733
S3150800454070B51E46044696F82400154648B9049ADE
S3150800455000F034F83082324629462046FFF738FF05
S31508004560708270BD2DE9F041069F044688461646BE
S315080045701D4600F095FE01280BD100F021F802290E
S3150800458007DB00F019F8F082B6F9160080033061EF
S3150800459010E000F085FE10F1010F0BD100F010F8C5
S315080045A011F1010F06DA00F007F8B082B6F9140027
S315080045B08003F060BDE8F0813A4641462046EFE6C2
S315080045C06869B0F90C10B5F90200091A70470000BD
S315080045D050F000089C220020140E002045F2F051ED
S315080045E081FB0001800C40EA813000B27047F8B5C3
S315080045F004460126A08800280D4604F1480700F065
S315080046009B80411EA180387C00283AD1787B0028FF
S315080046104FD1B96AC86860B1F87BBA7B401CC3B28F
S315080046209A4205D2F8730846C96888470020F87286
S31508004630F873B86A01698847F97A18B17F2902D2EE
S31508004640491C00E00021F972B96AC8680028F87A9E
S3150800465004D0BA7BB0EB520F13D101E07F2810D1FA
S315080046600868FEF7B0FD0100B4F9063048BF4942B4
S31508004670002B4FF0FF3210DD002810DC0020F87206
S315080046802A70387C012854D1B86A0068FEF79BFD69
S31508004690010012D5404200B20FE00028EED5B888D6
S315080046A089B28842ECD20021A180AE723E74012202
S315080046B0E6E7B86A41688847E3E795F9001011F11B
S315080046C0010F0CD1A988814214DB387B88BBF86AB4
S315080046D000F05CFDF86A3E7300F068FE29E00129E7
S315080046E021D1E988814205DB2A89904206DAA98820
S315080046F08842EADBA088401CA0801AE0786A00F0AD
S3150800470057FEB86A81688847E088698810FB01F116
S31508004710386A002209B200F04FFE04F15C01A68057
S31508004720A160062043E0A1880A29BEBFE988814224
S315080047300026A08800283BD1A0680028387C2DD008
S3150800474008B9F87206E0012804D1F86A00F079FE83
S3150800475000203873A06802888088E18810FB01F180
S31508004760386A09B200F028FEA06802884088E18805
S3150800477010FB01F1786A09B200F065FEA16820888D
S315080047800A8842434FF47A73B2FBF3F35B1CA380A7
S315080047908868A060397C491C397409E03A78521E49
S315080047A0904208BF002603D0072801D1002038749C
S315080047B03046F2BD10B5029C017784620021026280
S315080047C0436280F82C1010BD4169002918BF0847BC
S315080047D070478169002918BF084770474368002B4E
S315080047E018BF1847704780B5836889220BB1984768
S315080047F00246104602BD00F060BE0000F8B5044649
S31508004800084615461E46069F0799089A206304F12E
S31508004810C00359601A600749074B084A00912146A8
S3150800482000F05DFE6563A663E7632046BDE8F240D7
S3150800483000F05FBE2FAE00089568000833AE00088A
S31508004840C11768B14840401AB0FA80F29040D21CAD
S31508004850C907C2F5846241EA025202EBD02140053B
S3150800486070470000B0B581EA030C0CF0004C40F22A
S31508004870FF7515EA11541DBF15EA1357AC42AF422E
S3150800488039E0E41923EA455343F48013C90241F099
S31508004890004141EA505EC7021100A7FB0202002848
S315080048A04FF00000EEFB01204FF00001E3FB07216B
S315080048B018BF42F00102401800214941E3FB0E01EE
S315080048C0A4F580640F0302D252004041494154F1D5
S315080048D001046CDD470872F1004250F1000051EB0B
S315080048E00451A1F580115CBF41EA0C01B0BD4CEA48
S315080048F005510020B0BD05EA1357AC4214BFAF42BC
S3150800490041E050EA410E1CBF52EA430E02E06146FE
S315080049100020B0BD24423C441BD15FEA070EF6D006
S31508004920090302BF01460020AEF1140EB1FA81F761
S31508004930AEEB070401FA07FE0C37C7F1200100FAAF
S3150800494007F7C8404EEA000E23EA455343F480139E
S31508004950A2E733F00043B3FA83F704BFB2FA82FE44
S3150800496077440B3FE41BB7F1200E2FBF02FA0EF374
S31508004970BB40C7F1200E22FA0EFE38BF43EA0E03EB
S31508004980BA40641C82E750EA410E14BF52EA430E4D
S315080049906FF000014FF4001717EB430F8ABF194653
S315080049A017EB410FB5E74CEA05510020B0BDD4F12D
S315080049B00104B4F120070FDAC4F12007520828BF12
S315080049C042F0010210FA07F501FA07F7E1BF2A4398
S315080049D0E0403843E1400FE0352C98DCC7F120046D
S315080049E052EA400220FA07F218BF42F0010231FAF1
S315080049F007F0A1400A43002172F1004250F100007D
S31508004A0051EB0C01B0BD0000C1F30A5340F2FE326F
S31508004A109B1A14DDD3F120034FEAE17208DDC902BF
S31508004A2041EA505141F00040D84080185040704744
S31508004A3003F2E13010B1D24382F000407047002003
S31508004A4070470000014648B1B0FA80F18840C91C99
S31508004A50C1F58461090501EBD021400570470000C6
S31508004A60F0B540F2FF7581EA030C0CF0004C15EA2C
S31508004A7011541DBF15EA1357AC42AF42E5E0BC41DD
S31508004A80C1F31301C3F31303801A994143F4801346
S31508004A9004D2641E4000494180185941C90241EABE
S31508004AA05051B1FBF3F603FB1611A2FB0675D7EBC3
S31508004AB0C020A94102D2761E80185941C90241EA8E
S31508004AC05051B1FBF3FE03FB1E11A2FB0E75D7EB8B
S31508004AD0C020A94103D2AEF1010E801859418902BE
S31508004AE041EA9051760546EA8E2EB1FBF3F603FBB2
S31508004AF01611A2FB0675D7EB8020A94102D2761EB5
S31508004B0080185941C90241EA50514EEA060EB1FBD6
S31508004B10F3F603FB1611A2FB0675D7EBC020A941D5
S31508004B2002D2761E80185941C90241EA5051B1FB9A
S31508004B30F3F703FB1711A2FB0735D3EBC020A941F6
S31508004B4067F100070CBF004247F0010766F3D52757
S31508004B504FEA1E31B80814F5806412DDBD0775F1F9
S31508004B60004250EB0E5051EB045111F5801F5CBF0B
S31508004B7041EA0C01F0BD4CF07F6141F0E0410020B4
S31508004B80F0BDBD076D0840EA0E5041F48011D4F11E
S31508004B900104B4F120060ADAC4F120060200E04056
S31508004BA001FA06F3E1401843B24015430EE0342CEF
S31508004BB013DCC6F1200445EA40056D0820FA06F222
S31508004BC0154321FA06F0A1400D43002175F1004274
S31508004BD050F1000051EB0C01F0BD00205FEA0C011A
S31508004BE0F0BDCFB992185B41B3FA83F704BFB2FAA6
S31508004BF082F6BF190B3FB7F120062FBF02FA06F35C
S31508004C00BB40C7F1200622FA06F638BF3343BA403E
S31508004C101CB1E419641E33E77F4231F00041B1FA52
S31508004C2081F404BFB0FA80F6A4190B3CB4F120064F
S31508004C302FBF00FA06F1A140C4F1200620FA06F6B5
S31508004C4038BF3143A0403C1B1AE7AC421ABF05EAFD
S31508004C501357AF4212E050EA41061CBF52EA430618
S31508004C60BFE750EA4107304661461CBF41EA055195
S31508004C70F0BD52EA430C08BFC143F0BD00204FF413
S31508004C80001616EB410F98BF16EB430F08BF16EB3D
S31508004C90410F24BFC14305E016EB430F0CBF614625
S31508004CA04CEA0551F0BD000070B44FF0004591EA9A
S31508004CB0030F40F173806B40841A71EB030603D22D
S31508004CC0001BB141121973414FF4001C1CEB410F34
S31508004CD034BF7CEB430442E00C0DA4EB1356352E8F
S31508004CE04FDC45EAC323DB0A45EAC121C912B6F1FE
S31508004CF020050DDD63FA05F6EB4086EA0305124248
S31508004D0018BF45F00105C01851F100010CD213E097
S31508004D1062FA06F5F2405540F3415A40B340F34073
S31508004D205A408018594107D349085FEA30005FEABC
S31508004D30350528BF45F0010501F58011420875F1D2
S31508004D40004250F1000041EB04514E0016F5001FD9
S31508004D5070BC38BF70470020090D090570471CEB69
S31508004D60410F10D252EA43060BD0BCEB410F05D8CF
S31508004D700C0DAB43661E342EB6DD02E0AB4380183D
S31508004D80594170BC704770BC7047000070B44FF052
S31508004D90004591EA030F7FF58FAF6B40841A71EBDC
S31508004DA0030604D26E40001BB141121973414FF439
S31508004DB0001C1CEB410F34BF7CEB430683E00C0D53
S31508004DC0A4EB1356362E00F37C80012E45EAC32346
S31508004DD041DC43EA525312BFD20292025B08240511
S31508004DE045EAC12141EA5051D2EBC020994125D468
S31508004DF007D1B0FA80F610FA06F162D00020203604
S31508004E0008E0B1FA81F6B140C6F1200220FA02F2B2
S31508004E101143B0404FEAF474B4EB465434F001063B
S31508004E204FEA74040AD8D6F50016760D04F0004445
S31508004E30F04061FA06F25040F1404840C00A40EAA4
S31508004E40415021F0004128BF5FEA500550F10000AB
S31508004E5044EBD12135E0DB0A45EAC121C90AB6F19E
S31508004E6020050EDD42EA0242120CC5F1200603FABD
S31508004E7006F6EB4042EA06056D42984161F10001EB
S31508004E800DE062FA06F5F240554063FA06FC82EA3E
S31508004E900C02F3405A406D42904161EB030111F454
S31508004EA0801F05D1641E620502D06D00404149414C
S31508004EB021F48011430875F1004350F1000041EBDD
S31508004EC0045170BC70471CEB410F15D223F0004308
S31508004ED052EA43060BD04FEA4C0CBCEB410F04D800
S31508004EE00C0D661E342EB7DDEBE7801A994150EAA1
S31508004EF0410608BF0021E4E708BF1CEB430F28BFA3
S31508004F006FF00001DDE738B5002101668166818012
S31508004F10002200F1F4014266C266C281CA704A7173
S31508004F20CA60002300F591728B700B718B604B6120
S31508004F301370537000258A7E04E000EB44045B1C62
S31508004F40A4F87450DCB29442F7DB0D700D8300218F
S31508004F50BDE83440343000F00FB90021017000225A
S31508004F608280C1808181C281418202700162416270
S31508004F7002852C308180417002708271C27141892C
S31508004F804180704770B50146FF220E796A4C0023AE
S31508004F9004EB8300406A18B9042A0ADD1A4608E0B9
S31508004FA00579B54202BF00680D68A84204BF1A46D3
S31508004FB004235B1CDBB2042BEADB104604284EDA1A
S31508004FC004F12403241D43F82010002544F830502A
S31508004FD00B689868C0071AD45C6824F004045C60FF
S31508004FE00420186020255C68544824F020045C607E
S31508004FF01D609C68044044F000449C609868C00F9B
S31508005000FCD19C684E48044044F001049C60186B2F
S31508005010000900011863087904460A2C054605D2DA
S31508005020022606FA00F000F01CF807E0022606FA47
S3150800503000F00A3C00F015F840F00070C40D143377
S3150800504004F004048968E318000D00F01F001C68CA
S3150800505007258540AC4301FA00F020431860104646
S3150800506070BD40EA856004EB440440EA045070478A
S3150800507010B5314901EB80000222416A0879824065
S315080050800A2842EA806204D200EB400042EA005253
S3150800509006E00A3800EB400042EA005242F000728D
S315080050A0086850F8303F120D23F4F86302F4F862EA
S315080050B01A43026022480A68136C9468044044F054
S315080050C004049460086802685207FCD5006C80B234
S315080050D010BD194B59780246002011B901201A70E3
S315080050E05870704714494A78022A4FF6FF7002D161
S315080050F0488800224A70704738B50F4C61780129F4
S3150800510014D12078FFF7B4FF2378608002216170FC
S3150800511004EBC305696849B1002262700146184666
S31508005120AA686B6801B0BDE83040184731BD02482F
S315080051304078704700000000F0200020C0FFFF3FC5
S31508005140C0FFFF7F10B5418B828B5118490800229A
S3150800515004E0036A94B223F81410521C048B93B229
S31508005160A342F6D38180C180002180F8251010BDA6
S315080051704FF6FF71018270478160704701780129F7
S3150800518003D100690021FFF7F7BF70478168084718
S31508005190344900224A648A640978002918BF00F055
S315080051A001B870472DE9FC41064600272E4C2D4DC7
S315080051B000F0ACF9062110FB01F005EB470800B238
S315080051C00028B8F9341044BF404200B28842A2BF52
S315080051D0221D32F9171081422FDB281DC05D0028D9
S315080051E01CBFB8F91410002927D040F6B9329142ED
S315080051F023DAB8F9241000FB061000B200F08CF987
S315080052000090BDF90210B8F91400BDF90020EB1999
S3150800521011FB00F112FB00F2187B00B14942A86CA1
S31508005220931302EB5342A0EBE230A8648A13686C2E
S3150800523001EB524100EBE13068647F1C012FB7DDBA
S31508005240BDE8F3810848074A017811707047054997
S315080052500020087070470348406C70470148806C0E
S31508005260704700008C0B0020780B002070B50346B1
S315080052701C785D889E8820460D4331430A2825EA16
S315080052800202998003D1110005D10B2402E0110016
S3150800529001D00A2420461C705A8070BDC088704709
S315080052A00148006800F074B960130020F0B5B0F941
S315080052B00430B0F91450B0F91660B0F9062000248D
S315080052C04B43AAB1514382688F1806D5002AC8BF36
S315080052D0002906DD6FF0004703E0002A44BF0029D5
S315080052E00D4FC268BA4203DB0269BA42B8BF3A46F2
S315080052F0878B3B41C78B42FA07F1CB189D4202DAEE
S31508005300EC1A2B4603E0B342BCBFF41A3346A41882
S31508005310846018B2F0BD00BF0100008010B50146D8
S31508005320002914DD00220B488142ACBF4FF400531C
S31508005330802391FBF3F0C01800EBD0704010984220
S3150800534004D0521CD4B2062C0346F2D310BD00205A
S3150800535010BD00BF0100200010B5416F4968012249
S3150800536080F842206FF00103426F546823610022DF
S315080053704A638A63CA630A69D307FCD54A6C42F44E
S3150800538000424A64416F01F16C02937B022B0CD1F7
S31508005390896912888A61416FB1F86E20C9698A6184
S315080053A0406FB0F87010006A816110BD4169084706
S315080053B0012180F833107047F8B506460C46307858
S315080053C017460125A0B9304600F0FAF8F18CB6F96F
S315080053D02820A142B8BF002594421CDB29002ED004
S315080053E0F7B93078270401280CBF7760B76014E056
S315080053F07068C11300EB1140F18B0014A142A4BFE1
S31508005400B6F92420944206DB318C8C42BCBFB6F92F
S315080054102220A242E4DA002511E00020F0600DE027
S3150800542074804FF47A72B18B01FB07F3B3FBF2F188
S31508005430271A491C3F04F16097FBF1F0B061284632
S31508005440F2BDC1680847F0B500F12C0513462A7865
S3150800545092BB0A241E000FD1C269458B81810B4677
S3150800546053436C434278418593FBF4F313FB02F2F2
S315080054700023C2810385F0BD2A8953434FF47A7508
S31508005480B3FBF5F5C3696D1C0A4605855A43438B7C
S315080054904678B0F90E7041855C4392FBF4F497FBAD
S315080054A0F6F224B212B2A41A2404ADB294FBF5F5AE
S315080054B06E433F0406624762F0BD00214182417592
S315080054C0002200F19601027500F21B100A704A705C
S315080054D08A70CA700A71027042708270704700281A
S315080054E000D1704710B5029C0160C46042608360B9
S315080054F010BD10B50446206BE16B8847802084F800
