S01600006D6565726B61745F7361666574792E737265633A
S3150800DFAC030A0300FCDF000800000008100000004C
S3150800DFBC040000000A00000020030000F0D8FFFF50
S3150800DFCC1027000094110000C201000033B08046EF
S3150800DFDC9A9979C0007D1005B80BFF000007000957
S3150800DFEC1905030303140A0A3333B33ECC0E000097
S3150800DFFC08A4F73604E077E0E1E000F0B1B900E1F7
S3150800E00CF8B506468649874C4AF6AA2008604FF0AA
S3150800E01C0055F743A88847F29131884208D001F099
S3150800E02C46FA00F061F885F8586184F8587140E0B2
S3150800E03C85F8586184F858710020A87114277A4E0F
S3150800E04C2EE07843284490F8340018BBA879AA68BF
S3150800E05C0146794305F130035B58D21AB2F1004FE9
S3150800E06C18D230606818806A80470521316005F13E
S3150800E07C3002A87978432B181158B3F82CC0614490
S3150800E08C115005F13001A879784304F130030A5888
S3150800E09CD2431A50A879401CA871C0B2C043A071CB
S3150800E0ACA8790428CDDD01F075F901F099F901F08C
S3150800E0BC13FA01F0F2F95D4908680021F4BD80B540
S3150800E0CC00F012F85A490020088000F078F800F0A1
S3150800E0DC98F85849584A594B43F23200088043F28B
S3150800E0EC30001080188001BDF0B54F490520086036
S3150800E0FC4FF00050021D0260036800211970026877
S3150800E10C484B541C9C420460F6D30268FF211170DC
S3150800E11C03684B4A5C1C94420460F6D300230360E4
S3150800E12C48F66E433F4A938047F291348480142311
S3150800E13C002729E05D43054485F82440847913FBC0
S3150800E14C04F55619E44386F8244005440A24AC859C
S3150800E15C4FF6F57584795C4316190444B58584F82D
S3150800E16C3470847925465D435619054486F834106F
S3150800E17C2C638479957926465E431644641C35636C
S3150800E18C84719479651E957184792546042DD1DDA3
S3150800E19C2C4B83628771DB43936291712A4BC36361
S3150800E1ACDB43D363294B0365DB431365284B436673
S3150800E1BCDB435366274B8367DB439367F0BD10B588
S3150800E1CC2549264A0020086000210023002482E8FD
S3150800E1DC1B002349234B0860002223491A60086058
S3150800E1EC224B23491A800880224B23491A8008603F
S3150800E1FC05200E4B0C491A600860204B1A6010BD9E
S3150800E20CFEE71F480068C0F3407040B107494FF05D
S3150800E21CA06008604FF000521A4990680860704771
S3150800E22C0030004000020020F8040020F004002012
S3150800E23C0C0500200E0500201005002012050020F4
S3150800E24C0004002051EA0008E1F60008CDEE0008AB
S3150800E25C6DF5000855F10008D0040020C004002014
S3150800E26CD8040020DC040020E0040020040500206B
S3150800E27C0605002008050020D4040020FC04002014
S3150800E28C2410024000050020F8B54D484D4A016897
S3150800E29C13684D4C4D4D994208D34D484D4900686D
S3150800E2AC0A88002848BF4042904204DAFE202870AB
S3150800E2BC01212170F1BDB4F91870B4F91410464E49
S3150800E2CC3688C81B8646207948BFCEF1000E421CFC
S3150800E2DCD243431C764528DBB4F91CE0B1EB0E0C93
S3150800E2EC48BFCCF1000C66451FDBB7EB0E0748BFE1
S3150800E2FC7F42BE4219DBB4F91A70B4F91610B1EBA9
S3150800E30C070E48BFCEF1000E76450EDBB4F91EE0BB
S3150800E31CB1EB0E0C48BFCCF1000C664505DBB7EB30
S3150800E32C0E0748BF7F42BE4202DA2A71237108E003
S3150800E33C28B1411EC9432971401E207101E0FF21F5
S3150800E34C297126482279017891423CBF022000F0B7
S3150800E35C5DFD207918B9FC21297003202070F1BDC8
S3150800E36C70B5174B1C68641C1C60C5431C4C1D4BB4
S3150800E37CB4F900608642BCBF1D802080B4F90260E7
S3150800E38CB042BCBF5D806080B4F90450C8438D426E
S3150800E39CBCBF9880A180B4F90660B142BCBFD880D6
S3150800E3ACE180B4F90810D0439142BCBF1881228190
S3150800E3BCB4F90A50AA42BCBF5881628170BD0000EC
S3150800E3CCE4040020D4DF0008D8000020D80200207E
S3150800E3DCD4040020C0DF0008E4DF0008EEDF0008E4
S3150800E3ECEC000020EC02002010B4754801680068A7
S3150800E3FC884240F0DE80734801680068884240F025
S3150800E40CD8806F4802680068904240F0D2806D4808
S3150800E41C02680068904240F0CC806948036800683E
S3150800E42C984240F0C680674803680068984240F0F6
S3150800E43CC080634804680068A04240F0BA8061480E
S3150800E44C04680068A04240F0B48010BC2DE9E001D5
S3150800E45C5B4805680068A84240F0938059480568EF
S3150800E46C0068A84240F08D80554806680068B0429E
S3150800E47C40F08780534806680068B04240F08180B7
S3150800E48C4F4807680068B84240F07B804D480768DB
S3150800E49C0068B84240F07580494800688046404597
S3150800E4AC40F06F80474800688046404569D1BDE812
S3150800E4BCE0012DE9001E424800688146484540F0B7
S3150800E4CC708040480068814648456AD13C480068D7
S3150800E4DC8246504565D13B4800688246504560D116
S3150800E4EC37480068834658455BD1364800688346EA
S3150800E4FC584556D1324800688446604551D1314852
S3150800E50C0068844660454CD1BDE8001EF0B4012174
S3150800E51C01292FD10222022A2CD10323032B29D11C
S3150800E52C0424042C26D10525052D23D10626062ED2
S3150800E53C20D10727072F1DD1F0BC2DE9001F5FF04E
S3150800E54C08080820404524D15FF0090909204845E8
S3150800E55C1FD15FF00A0A0A2050455FF00B0B0B20FF
S3150800E56C584516D15FF00C0C0C20604511D1BDE84E
S3150800E57C001F7047F0BC00B501F0F8F85DF804EB25
S3150800E58C7047BDE8E00100B501F0F0F85DF804EB62
S3150800E59C7047BDE8001F00B501F0E8F85DF804EB1C
S3150800E5AC7047BDE8001E00B501F0E0F85DF804EB15
S3150800E5BC704710BC00B501F0D9F85DF804EB70474C
S3150800E5CC58E900085CE90008C004002049E900087D
S3150800E5DC61E9000865E9000869E900086DE90008C1
S3150800E5EC71E90008000000000000000000000000AF
S3150800E5FC0000000075E9000879E900080000000031
S3150800E60C7DE9000881E9000885E9000889E9000820
S3150800E61C8DE9000891E9000895E9000899E90008D0
S3150800E62C9DE90008A1E90008A5E90008A9E9000880
S3150800E63CADE90008B1E90008B5E90008B9E9000830
S3150800E64CBDE90008C1E90008C5E90008C9E90008E0
S3150800E65CCDE90008D1E90008D5E90008D9E9000890
S3150800E66CDDE90008E1E90008E5E90008E9E9000840
S3150800E67CEDE90008F1E90008F5E9000800000000DA
S3150800E68C00000000F9E90008FDE9000801EA0008A5
S3150800E69C05EA00080000000009EA00080DEA00086F
S3150800E6AC11EA000815EA000819EA00081DEA00082C
S3150800E6BC21EA00080000000000000000000000002D
S3150800E6CC0000000000000000000000000000000030
S3150800E6DC0000000025EA0008000000000000000009
S3150800E6EC29EA0008000000000000000000000000F5
S3150800E6FC0000000000000000000000000000000000
S3150800E70C00000000000000002DEA000831EA0008AD
S3150800E71C00000000000000000000000000000000DF
S3150800E72C000000000000000035EA000839EA00087D
S3150800E73C3DEA000841EA000845EA00080000000026
S3150800E74C00000000000000000000000049EA000874
S3150800E75C10B51448144A016841F470010160106838
S3150800E76C124940F001001060536811480B40536081
S3150800E77C0023146804401460116821F48021116088
S3150800E78C506820F4FE005060D06A00090001D0627F
S3150800E79C116B08480140116393604FF000600649FD
S3150800E7AC086010BD88ED00E0001002400CC07FF830
S3150800E7BCFFFFF6FECCFC00FF08ED00E000000000B1
S3150800E7CCB71DC1046E3B8209D926430DDC760413AA
S3150800E7DC6B6BC517B24D861A0550471EB8ED082641
S3150800E7EC0FF0C922D6D68A2F61CB4B2B649B0C35DE
S3150800E7FCD386CD310AA08E3CBDBD4F3830B400252A
S3150800E80C13E050F8042BD30744BFA9F101039A1857
S3150800E81C091F042942F8045BFAD213468C0744BF35
S3150800E82C15809B1CC90748BF1D7050F8041B00298E
S3150800E83CE7D130BC7047000010B50A490A4C91F86C
S3150800E84CFF301A4644F82200521C5B1CD243D8B23D
S3150800E85C04280648A4BFFF22002380F8FF2081F86D
S3150800E86CFF3010BD00000020C0040020000200206C
S3150800E87C10B5074979441831064C7C44163404E023
S3150800E88C0A68081D114488470146A142F8D110BDF3
S3150800E89C2C000000380000004EF68851CEF200011C
S3150800E8AC086840F470000860BFF34F8FBFF36F8F92
S3150800E8BC4FF00070E1EE100A7047000041FFFFFFB1
S3150800E8CC58000000C00400200000000000F00DF8FD
S3150800E8DC002801D0FFF7CCFFAFF300800020AFF380
S3150800E8EC008000F006F800F009F80120704780B5A2
S3150800E8FC00E080B5FFF7BCFF002002BD00F000B8B1
S3150800E90C0746384600F002F8FBE7000080B5AFF37F
S3150800E91C0080024A11001820ABBEFBE72600020055
S3150800E92C0548014603B4684680F30988AFF30080AE
S3150800E93CFFF7B2FFFFF7CAFFA5EDF5FE01488047C2
S3150800E94C014800475DE700082DE90008AAAAAAAA0B
S3150800E95C55555555FFF7FEBFFFF7FEBFFFF7FEBF30
S3150800E96CFFF7FEBFFFF7FEBFFFF7FEBFFFF7FEBFC1
S3150800E97CFFF7FEBFFFF7FEBFFFF7FEBFFFF7FEBFB1
S3150800E98CFFF7FEBFFFF7FEBFFFF7FEBFFFF7FEBFA1
S3150800E99CFFF7FEBFFFF7FEBFFFF7FEBFFFF7FEBF91
S3150800E9ACFFF7FEBFFFF7FEBFFFF7FEBFFFF7FEBF81
S3150800E9BCFFF7FEBFFFF7FEBFFFF7FEBFFFF7FEBF71
S3150800E9CCFFF7FEBFFFF7FEBFFFF7FEBFFFF7FEBF61
S3150800E9DCFFF7FEBFFFF7FEBFFFF7FEBFFFF7FEBF51
S3150800E9ECFFF7FEBFFFF7FEBFFFF7FEBFFFF7FEBF41
S3150800E9FCFFF7FEBFFFF7FEBFFFF7FEBFFFF7FEBF31
S3150800EA0CFFF7FEBFFFF7FEBFFFF7FEBFFFF7FEBF20
S3150800EA1CFFF7FEBFFFF7FEBFFFF7FEBFFFF7FEBF10
S3150800EA2CFFF7FEBFFFF7FEBFFFF7FEBFFFF7FEBF00
S3150800EA3CFFF7FEBFFFF7FEBFFFF7FEBFFFF7FEBFF0
S3150800EA4C000000002DE9F84F00F003F900F089F9F1
S3150800EA5CDFF8E423DFF8E433B2F80090DFF8E013CC
S3150800EA6CDFF8E003B3F800A001F1D80401F1DA08E5
S3150800EA7C227800F1900501F1900B00F1D807FF26DA
S3150800EA8C5AB1012A32D0022A75D0032A77D0042A21
S3150800EA9C18BFFF2A00F0C680C1E04FF6FE73A0F837
S3150800EAAC8A300122A1F88A204FF0FF3169600022D2
S3150800EABCCBF804207E700021617000F1DA02002385
S3150800EACC08E0565408F8013061784D1CED437D700A
S3150800EADC491C617061780829F3DB4FF6FF70788260
S3150800EAEC6382FE2038700122227095E0FD20387072
S3150800EAFC0221DFF8542321701088C343BB81A081FF
S3150800EB0CE189884205D1E078421CD243FA70401C50
S3150800EB1C01E0FE700020DFF83413E07091F80080F5
S3150800EB2CE1784FEA88008842BCBF012000F06EF9F4
S3150800EB3CA089C143F981E081C5480188CA43BA81D5
S3150800EB4CA181A078431CDB43451C494528BF8A454F
S3150800EB5C02D2BB70A57007E028B1421ED243BA7028
S3150800EB6C401EA07000E0BE70A07880455AD2BDE861
S3150800EB7CF24F00204AE1BDE8F14FFFF785BBB548D7
S3150800EB8CB54A01681368994220D3B448B449006859
S3150800EB9C0A88002848BF4042824217DAB4F9143072
S3150800EBACB4F9161060795B1AAAEB09029BB29A4261
S3150800EBBC04DB421CD2437A71401C04E028B1421E85
S3150800EBCCD2437A71401E607100E07E71A548627965
S3150800EBDC0178914203D2032000F018F903E0FE20D5
S3150800EBEC3870012121707E70002004E00846411C13
S3150800EBFCC9437970401C60706178082903DA18F8E3
S3150800EC0C01000028F2D0082906D1DBF80000401CC8
S3150800EC1CC1432960CBF80000BDE8F14F04E03E7013
S3150800EC2C00202070BDE8F18F8A498F4A00200860C1
S3150800EC3C47F6FF738D488E494180538003801180B7
S3150800EC4CC180D38083809180418153810381118156
S3150800EC5C70472DE9F0478148864A0168864892ED47
S3150800EC6C001AD0ED001ADFF81482854E854D00295E
S3150800EC7C48BF494200EE101AF8EEC00A40EE811A57
S3150800EC8CFDEEE10A10EE904A20B2C143A8F81A101C
S3150800EC9C74834FF0030E7C490860B6F91220B6F956
S3150800ECAC0E30B6F9161002EB030C8C449CFBFEFED8
S3150800ECBCC5F800E010EE107A744DB5F90050BD4257
S3150800ECCC41DA4042C043A8F81C0067423078DFF8A6
S3150800ECDCC091B7830FFA84FA451C9A4599F80090A7
S3150800ECECA1BF23B2934224B28C426FEA050E07DA0F
S3150800ECFC88F800E03570EDB2A94530D204202BE037
S3150800ED0CB6F910103AB29142A2BFB6F914303CB219
S3150800ED1CA342A2BFB6F918103FB2B94207DA88F86F
S3150800ED2C00E03570EDB2A94519D2842014E030B153
S3150800ED3C411EC94388F80010401E30700FE0FF21B1
S3150800ED4C88F800100BE05348B0F900009842A4BFAD
S3150800ED5C9042884203DA0720BDE8F04756E0BDE842
S3150800ED6CF087374991F85801002800D17047F8B553
S3150800ED7C01F1DF04484E2078484937680968484D40
S3150800ED8C421ED243431EFF26B94212DA7F1A454960
S3150800ED9C09688F420DD3411CC9432970401C42494E
S3150800EDAC2070C0B20A78824208D2052000F02EF8EC
S3150800EDBC04E000281ABF2A7023702E703B4F39685E
S3150800EDCC60783B4F3F68421ED243431EB94217D266
S3150800EDDC224F38493F680968B942A2BF36490968C3
S3150800EDEC8F420DDA411CC9436970401C3349607067
S3150800EDFCC0B20A78824208D2BDE8F240062005E085
S3150800EE0C10B16A706370F1BD6E70F1BD70B50C49C6
S3150800EE1C0C4C01F18C0204F18C0513685B1CDE4367
S3150800EE2C2E601360C343AB6090600422FB2084F809
S3150800EE3CD80081F8D82070BDE8DF0008EADF0008A2
S3150800EE4C000000200002002008050020F2DF000860
S3150800EE5C04050020E4040020D4DF0008D4040020B4
S3150800EE6CC0DF0008F3DF0008EC000020EC020020ED
S3150800EE7C0080FFFFDCDF0008D8DF0008DE02002078
S3150800EE8CDE000020EC040020E8040020E2DF000885
S3150800EE9CECDF0008E0DF0008D8040020DC040020C2
S3150800EEACDF020020D0DF0008EDDF0008E0040020B8
S3150800EEBCC4DF0008CCDF0008C8DF0008EFDF000855
S3150800EECC2DE9F84FDFF85082DFF850B298F8240194
S3150800EEDC08F580760BF580774FF0FF344FF0FF0975
S3150800EEEC20B101285CD0042859D0F9E0FD218BF813
S3150800EEFCA81002200BF1A80288F8A8004FF6D361D7
S3150800EF0C51804FF4967008F1A801B7EE001A4880A4
S3150800EF1CD4600020C8603C623062F7EE001A804963
S3150800EF2C804879607060BC6000217F48B1600068D9
S3150800EF3CC2433A61306100EE100A7C48D0ED000AF3
S3150800EF4CB8EE400A30EE811A21EE001ABCEEC11A50
S3150800EF5C11EE100AC143F96171EEE00AF06120EE78
S3150800EF6C800ABCEEC00A10EE100AC243BA61B06140
S3150800EF7C08F1FD020BF1FD00002180F8029091705A
S3150800EF8CFC60F1608BF8FD9088F8FD1080F8019014
S3150800EF9C5170FE208BF82401012188F8241196E083
S3150800EFAC6348DFF890A10268634DD343BB60B26037
S3150800EFBC71689AF8010091421FD1604A1378411C76
S3150800EFCC401CC943C2B2934207D28AF80100697041
S3150800EFDC012000F08BF8FF2100208AF801006970E7
S3150800EFEC40F29111B06888425AD33C60002298F8D6
S3150800EFFCFD1032600BF1FD0A0AE028B1411E401ED5
S3150800F00CC9438AF8010000E0FF217B607260E6E7DD
S3150800F01C4B487269036812E0CE468AF800E03068FD
S3150800F02C401CC2433A600428306037D20028EFD01F
S3150800F03C434A52F8203002EB800050F8042C9A1AF6
S3150800F04CD043F260F860C8B2421E6FEA020EF2694B
S3150800F05CF3689A4224BFB569AB42A1F1010C3CD2C4
S3150800F06C02EB4202A21A934221BFB56905EB45058C
S3150800F07C621B9A422DD2401C6FEA000E3148027868
S3150800F08C491CCBB29A42C8D288F8FD108AF800E01F
S3150800F09C022000F02BF8CE460021BEE788F8FD10BA
S3150800F0AC2748C068C14379617061306A001DC14345
S3150800F0BC0A2839620AD308F1A8023C620BF1A804A3
S3150800F0CC9168491CCB43A360002091603062BDE86F
S3150800F0DCF18F0028A0D061469FE700289CD0FAE75C
S3150800F0EC8BF82491002088F82401F0E770B50A49BA
S3150800F0FC0A4C01F1AC0204F1AC0513685B1CDE4347
S3150800F10C2E601360C343AB6090600022FF2084F826
S3150800F11C240181F8242170BD000000200002002083
S3150800F12C10415221EFBEADDEF8DF0008F4DF00080F
S3150800F13CD0040020FD000020FD020020F1DF0008AD
S3150800F14CC0040020F0DF00082DE9F041834884490B
S3150800F15C00F5A47700F1C804787B01F1C80801F51D
S3150800F16CA4764FF0FF3550B1012821D002282ED0B5
S3150800F17C03284DD004286ED0FF2818D091E0FB2127
S3150800F18C88F80010042222704FF6FB70A8F80200CB
S3150800F19C6280C8F8045000206060C8F80850A06067
S3150800F1ACC8F80C50E060FE217173012078737CE07E
S3150800F1BC6C4908686C49C243326038606B487060A9
S3150800F1CC7960FD207073022100F077F86DE0FD2060
S3150800F1DC7073B5600021B96003E000F074F800F0B4
S3150800F1EC66F8B868396888425FD278686049884298
S3150800F1FCF3D30868E16F884208D1FC2070730321A9
S3150800F20C00F05BF85B495C48716020E0122045E031
S3150800F21CFC207073B5600021B96003E000F053F868
S3150800F22C00F045F8B868396888423ED27868534980
S3150800F23C8842F3D30868E16F88420AD1FB207073C1
S3150800F24C042100F03AF84E490868C24372607860A7
S3150800F25C2BE0132022E0FB207073B560002149488F
S3150800F26CB960056803E000F02EF800F020F8B868DD
S3150800F27C3968884219D27868A842F4D32968E06FAD
S3150800F28C81420AD1FE21717301207873A068401C53
S3150800F29CC143C8F80810A06007E01420BDE8F04187
S3150800F2AC46E0FF20707300217973BDE8F081B868D9
S3150800F2BC401CC143B160B860704779730020C8F828
S3150800F2CC7C00E567704770B52F49304B8A680C6827
S3150800F2DC15686540ED431D6052F8040B44402C48F4
S3150800F2EC250F50F8255085EA0415EC431C602E0FA3
S3150800F2FC00F00FF800F00DF800F00BF850F82600A7
S3150800F30C80EA0510C4431C600860D04398608A6084
S3150800F31C70BD50F8264084EA0514E5431D60260F97
S3150800F32C50F8265085EA0415EC431C602E0F7047DE
S3150800F33C70B50A490A4C01F1CC0204F1CC051368E4
S3150800F34C5B1CDE432E601360C343AB6090600022E7
S3150800F35CFF2084F8550181F8552170BD0000002066
S3150800F36C00020020B8DF000800E80008FF17FFF7C6
S3150800F37CFCFF0008FF1FFFF700E00008FCE7000889
S3150800F38CB4DF0008B0DF0008440100204403002065
S3150800F39CC8E7000810B54FF0005000F15401CA8EAA
S3150800F3ACCB8E8285DB43644A938500F19A031C88CD
S3150800F3BCA0F8404018881C8A0C80C043A2F840006C
S3150800F3CC02F154001C8C1A8A8C82D2431C8E028041
S3150800F3DC0C851A8C198ED243C9438282018510BDBD
S3150800F3EC56490A684FF0005353F88C0F18B19A68AF
S3150800F3FC22F07F421EE0186928B19A6922F07F42F2
S3150800F40C02F1807216E0186A28B19A6A22F07F42D5
S3150800F41C02F100720EE0186B28B19A6B22F07F424B
S3150800F42C02F1407206E0186C20B19A6C22F07F4209
S3150800F43C02F180620A60F8B5404D414C286848B321
S3150800F44C00F068F84FF000503E4B8268206808B907
S3150800F45C1A601FE03C4E37784FF47A7044F62061F8
S3150800F46C10FB07171868121A974213D23749384EE9
S3150800F47C08783288904204D2FEF7C2FE002030800B
S3150800F48C05E0FEF731FEFEF79AFEFFF7CDFB308856
S3150800F49C401C308029682160F1BD4FF0005081680E
S3150800F4AC491C816024488168491E81607047294837
S3150800F4BC4CF6CC41016045F255520260002343607C
S3150800F4CC40F6FF7101618160C16811F0070FFBD12D
S3150800F4DC4AF6AA21016070474FF0005010B500F1AA
S3150800F4EC90031D491C680A681869012C88BF42F0EC
S3150800F4FC010208B142F00202186A08B142F004028D
S3150800F50C186B08B142F00802186C08B142F01002E8
S3150800F51C0A6010BD114801684908490001606FF07E
S3150800F52C0101826B22F40042826341604268D30770
S3150800F53CFCD541607047000000020020F004002052
S3150800F54CF404002000050020ADDF0008AEDF00083B
S3150800F55C0C05002000300040FC0400200C2C014057
S3150800F56C2DE9F04F584C5948594D006804F1B8022A
S3150800F57C04F59C74C14394F80AA005F1B803BAF1D2
S3150800F58C040F05F59C754FF000586FF000596FF095
S3150800F59C10074FF0FF364FF0FF0E00F28F80DFE8B2
S3150800F5AC0AF0031D3C8D91004FF0FC0B83F800B05C
S3150800F5BC4FF0030C82F800C04FF6377AA3F802A076
S3150800F5CC4FF0C80BA2F802B05E604FF0000CC2F800
S3150800F5DC04C09E60C2F808C0DE6002E0DE604FF030
S3150800F5EC000CC2F80CC05F6710275767C3F87890F1
S3150800F5FCC2F87880C3F87C90C2F87C802E60C4F878
S3150800F60C00C06960606085F808E0A4F808C0FD20B1
S3150800F61C85F809E0A87202214EE0D068B0BB09E073
S3150800F62C491C6FEA010CC3F878C09167401EC143A8
S3150800F63C59675067506F48B3916F91F800C06FEADD
S3150800F64C0C0C85F809C001F5007891F800C084F80F
S3150800F65C09C098F8009084F8089089EA0C0C98F878
S3150800F66C00806FEA0808BCF1FF0F85F80880D7D030
S3150800F67C5068401CC1435960506002216FF002006B
S3150800F68CD860D16085F80AE00020A0725F67102068
S3150800F69C5067606828B1401EC1436060696088B9CC
S3150800F6AC00E06E60D06868B99068401CC1439960E8
S3150800F6BC90600121FE20A872A17203E085F80AE089
S3150800F6CC0020A072BDE8F08F00000020BCDF000807
S3150800F6DC0002002070B5274D274C95F82801274EB7
S3150800F6EC30B1012815D0022818BFFF283DD036E0C6
S3150800F6FC002131704FF6DF42A4F89A204FF4487077
S3150800F70CA5F89A00FE2184F82811012085F828010D
S3150800F71C70BDFEF769FE3278012A04F19C0105F1E9
S3150800F72C9C000ED10268521CD3430B6002606FF02A
S3150800F73C01028A6001218160FD2084F828010221DA
S3150800F74C11E000223270FE2384F828310124426825
S3150800F75C85F82841521CD3434B60426070BDFF208C
S3150800F76C84F82801002185F8281170BD0349012069
S3150800F77C08707047000000200002002014050020C5
S3090800FFFC01286071F9
S7050800E92DDC
